{
  "contractName": "BillRentalPayment",
  "abi": [
    {
      "constant": true,
      "inputs": [],
      "name": "name",
      "outputs": [
        {
          "name": "",
          "type": "string"
        }
      ],
      "payable": false,
      "stateMutability": "view",
      "type": "function",
      "signature": "0x06fdde03"
    },
    {
      "constant": true,
      "inputs": [],
      "name": "payer",
      "outputs": [
        {
          "name": "",
          "type": "address"
        }
      ],
      "payable": false,
      "stateMutability": "view",
      "type": "function",
      "signature": "0x123119cd"
    },
    {
      "constant": true,
      "inputs": [],
      "name": "payee_who",
      "outputs": [
        {
          "name": "",
          "type": "address"
        }
      ],
      "payable": false,
      "stateMutability": "view",
      "type": "function",
      "signature": "0x1d1cc760"
    },
    {
      "constant": true,
      "inputs": [
        {
          "name": "",
          "type": "address"
        },
        {
          "name": "",
          "type": "uint256"
        }
      ],
      "name": "validPayeesList",
      "outputs": [
        {
          "name": "payee",
          "type": "address"
        }
      ],
      "payable": false,
      "stateMutability": "view",
      "type": "function",
      "signature": "0x1de9d21d"
    },
    {
      "constant": true,
      "inputs": [
        {
          "name": "",
          "type": "uint256"
        }
      ],
      "name": "bills",
      "outputs": [
        {
          "name": "id",
          "type": "uint256"
        },
        {
          "name": "name",
          "type": "string"
        },
        {
          "name": "amount",
          "type": "uint256"
        },
        {
          "name": "payee",
          "type": "address"
        },
        {
          "name": "payer",
          "type": "address"
        },
        {
          "name": "alreadyPaid",
          "type": "bool"
        }
      ],
      "payable": false,
      "stateMutability": "view",
      "type": "function",
      "signature": "0x28bdcde8"
    },
    {
      "constant": true,
      "inputs": [
        {
          "name": "",
          "type": "address"
        }
      ],
      "name": "upperLimit",
      "outputs": [
        {
          "name": "",
          "type": "uint256"
        }
      ],
      "payable": false,
      "stateMutability": "view",
      "type": "function",
      "signature": "0x686c5cd7"
    },
    {
      "constant": true,
      "inputs": [],
      "name": "payer_who",
      "outputs": [
        {
          "name": "",
          "type": "address"
        }
      ],
      "payable": false,
      "stateMutability": "view",
      "type": "function",
      "signature": "0x8ae49608"
    },
    {
      "constant": true,
      "inputs": [],
      "name": "payerAccountActive",
      "outputs": [
        {
          "name": "",
          "type": "bool"
        }
      ],
      "payable": false,
      "stateMutability": "view",
      "type": "function",
      "signature": "0x980bdf46"
    },
    {
      "constant": true,
      "inputs": [
        {
          "name": "",
          "type": "uint256"
        }
      ],
      "name": "validListOfPayees",
      "outputs": [
        {
          "name": "payee",
          "type": "address"
        }
      ],
      "payable": false,
      "stateMutability": "view",
      "type": "function",
      "signature": "0x995c5fa1"
    },
    {
      "constant": true,
      "inputs": [
        {
          "name": "",
          "type": "address"
        }
      ],
      "name": "numberOfValidPayees",
      "outputs": [
        {
          "name": "",
          "type": "uint256"
        }
      ],
      "payable": false,
      "stateMutability": "view",
      "type": "function",
      "signature": "0xd4b9a714"
    },
    {
      "constant": true,
      "inputs": [],
      "name": "numberOfTransactions",
      "outputs": [
        {
          "name": "",
          "type": "uint256"
        }
      ],
      "payable": false,
      "stateMutability": "view",
      "type": "function",
      "signature": "0xf8d3afa4"
    },
    {
      "inputs": [],
      "payable": true,
      "stateMutability": "payable",
      "type": "constructor",
      "signature": "constructor"
    },
    {
      "anonymous": false,
      "inputs": [
        {
          "indexed": false,
          "name": "id",
          "type": "uint256"
        },
        {
          "indexed": false,
          "name": "name",
          "type": "string"
        },
        {
          "indexed": false,
          "name": "amount",
          "type": "uint256"
        },
        {
          "indexed": false,
          "name": "payee",
          "type": "address"
        },
        {
          "indexed": false,
          "name": "payer",
          "type": "address"
        },
        {
          "indexed": false,
          "name": "alreadyPaid",
          "type": "bool"
        }
      ],
      "name": "BillPaymentRequested",
      "type": "event",
      "signature": "0x694bf00112848e5e425efbfeca26dbe798788fac8c95f9a7f1b07e4ddd523811"
    },
    {
      "anonymous": false,
      "inputs": [
        {
          "indexed": false,
          "name": "id",
          "type": "uint256"
        },
        {
          "indexed": false,
          "name": "name",
          "type": "string"
        },
        {
          "indexed": false,
          "name": "amount",
          "type": "uint256"
        },
        {
          "indexed": false,
          "name": "payee",
          "type": "address"
        },
        {
          "indexed": false,
          "name": "payer",
          "type": "address"
        },
        {
          "indexed": false,
          "name": "alreadyPaid",
          "type": "bool"
        }
      ],
      "name": "BillPaid",
      "type": "event",
      "signature": "0x4ef5950e321d670c48a770ea38ea0f2ad7d2587599634f90a7da82f3361831ff"
    },
    {
      "constant": false,
      "inputs": [
        {
          "name": "_name",
          "type": "string"
        },
        {
          "name": "_amount",
          "type": "uint256"
        },
        {
          "name": "_payer",
          "type": "address"
        }
      ],
      "name": "requestPayment",
      "outputs": [],
      "payable": false,
      "stateMutability": "nonpayable",
      "type": "function",
      "signature": "0x392183aa"
    },
    {
      "constant": false,
      "inputs": [
        {
          "name": "_id",
          "type": "uint256"
        }
      ],
      "name": "payBill",
      "outputs": [],
      "payable": true,
      "stateMutability": "payable",
      "type": "function",
      "signature": "0xf0975190"
    },
    {
      "constant": false,
      "inputs": [],
      "name": "activateAccount",
      "outputs": [],
      "payable": false,
      "stateMutability": "nonpayable",
      "type": "function",
      "signature": "0x6f26f7d8"
    },
    {
      "constant": false,
      "inputs": [],
      "name": "deactivateAccount",
      "outputs": [],
      "payable": false,
      "stateMutability": "nonpayable",
      "type": "function",
      "signature": "0xe040e9a0"
    },
    {
      "constant": false,
      "inputs": [],
      "name": "getAccountStatus",
      "outputs": [
        {
          "name": "",
          "type": "bool"
        }
      ],
      "payable": false,
      "stateMutability": "nonpayable",
      "type": "function",
      "signature": "0x1b7035ea"
    },
    {
      "constant": false,
      "inputs": [
        {
          "name": "_upperLimit",
          "type": "uint256"
        },
        {
          "name": "payer",
          "type": "address"
        }
      ],
      "name": "setUpperLimit",
      "outputs": [],
      "payable": false,
      "stateMutability": "nonpayable",
      "type": "function",
      "signature": "0xab767dbb"
    },
    {
      "constant": false,
      "inputs": [],
      "name": "getUpperLimit",
      "outputs": [
        {
          "name": "",
          "type": "uint256"
        }
      ],
      "payable": false,
      "stateMutability": "nonpayable",
      "type": "function",
      "signature": "0x1f5f528d"
    },
    {
      "constant": false,
      "inputs": [
        {
          "name": "_validPayee",
          "type": "address"
        },
        {
          "name": "payer",
          "type": "address"
        }
      ],
      "name": "addValidPayee",
      "outputs": [],
      "payable": false,
      "stateMutability": "nonpayable",
      "type": "function",
      "signature": "0xb092b613"
    }
  ],
  "bytecode": "0x608060405260006001556001600760006101000a81548160ff0219169083151502179055506040805190810160405280600a81526020017f506f72746f62696c6c6f00000000000000000000000000000000000000000000815250600090805190602001906200007192919062000078565b5062000127565b828054600181600116156101000203166002900490600052602060002090601f016020900481019282601f10620000bb57805160ff1916838001178555620000ec565b82800160010185558215620000ec579182015b82811115620000eb578251825591602001919060010190620000ce565b5b509050620000fb9190620000ff565b5090565b6200012491905b808211156200012057600081600090555060010162000106565b5090565b90565b6117ec80620001376000396000f3fe608060405260043610610107576000357c0100000000000000000000000000000000000000000000000000000000900463ffffffff16806306fdde031461010c578063123119cd1461019c5780631b7035ea146101f35780631d1cc760146102225780631de9d21d146102795780631f5f528d1461031457806328bdcde81461033f578063392183aa14610472578063686c5cd7146105645780636f26f7d8146105c95780638ae49608146105e0578063980bdf4614610637578063995c5fa114610666578063ab767dbb146106e1578063b092b6131461073c578063d4b9a714146107ad578063e040e9a014610812578063f097519014610829578063f8d3afa414610857575b600080fd5b34801561011857600080fd5b50610121610882565b6040518080602001828103825283818151815260200191508051906020019080838360005b83811015610161578082015181840152602081019050610146565b50505050905090810190601f16801561018e5780820380516001836020036101000a031916815260200191505b509250505060405180910390f35b3480156101a857600080fd5b506101b1610920565b604051808273ffffffffffffffffffffffffffffffffffffffff1673ffffffffffffffffffffffffffffffffffffffff16815260200191505060405180910390f35b3480156101ff57600080fd5b50610208610946565b604051808215151515815260200191505060405180910390f35b34801561022e57600080fd5b5061023761095d565b604051808273ffffffffffffffffffffffffffffffffffffffff1673ffffffffffffffffffffffffffffffffffffffff16815260200191505060405180910390f35b34801561028557600080fd5b506102d26004803603604081101561029c57600080fd5b81019080803573ffffffffffffffffffffffffffffffffffffffff16906020019092919080359060200190929190505050610983565b604051808273ffffffffffffffffffffffffffffffffffffffff1673ffffffffffffffffffffffffffffffffffffffff16815260200191505060405180910390f35b34801561032057600080fd5b506103296109d9565b6040518082815260200191505060405180910390f35b34801561034b57600080fd5b506103786004803603602081101561036257600080fd5b8101908080359060200190929190505050610a47565b60405180878152602001806020018681526020018573ffffffffffffffffffffffffffffffffffffffff1673ffffffffffffffffffffffffffffffffffffffff1681526020018473ffffffffffffffffffffffffffffffffffffffff1673ffffffffffffffffffffffffffffffffffffffff16815260200183151515158152602001828103825287818151815260200191508051906020019080838360005b83811015610432578082015181840152602081019050610417565b50505050905090810190601f16801561045f5780820380516001836020036101000a031916815260200191505b5097505050505050505060405180910390f35b34801561047e57600080fd5b506105626004803603606081101561049557600080fd5b81019080803590602001906401000000008111156104b257600080fd5b8201836020820111156104c457600080fd5b803590602001918460018302840111640100000000831117156104e657600080fd5b91908080601f016020809104026020016040519081016040528093929190818152602001838380828437600081840152601f19601f82011690508083019250505050505050919291929080359060200190929190803573ffffffffffffffffffffffffffffffffffffffff169060200190929190505050610b68565b005b34801561057057600080fd5b506105b36004803603602081101561058757600080fd5b81019080803573ffffffffffffffffffffffffffffffffffffffff169060200190929190505050610e5a565b6040518082815260200191505060405180910390f35b3480156105d557600080fd5b506105de610e72565b005b3480156105ec57600080fd5b506105f5610ea6565b604051808273ffffffffffffffffffffffffffffffffffffffff1673ffffffffffffffffffffffffffffffffffffffff16815260200191505060405180910390f35b34801561064357600080fd5b5061064c610ecc565b604051808215151515815260200191505060405180910390f35b34801561067257600080fd5b5061069f6004803603602081101561068957600080fd5b8101908080359060200190929190505050610edf565b604051808273ffffffffffffffffffffffffffffffffffffffff1673ffffffffffffffffffffffffffffffffffffffff16815260200191505060405180910390f35b3480156106ed57600080fd5b5061073a6004803603604081101561070457600080fd5b8101908080359060200190929190803573ffffffffffffffffffffffffffffffffffffffff169060200190929190505050610f28565b005b34801561074857600080fd5b506107ab6004803603604081101561075f57600080fd5b81019080803573ffffffffffffffffffffffffffffffffffffffff169060200190929190803573ffffffffffffffffffffffffffffffffffffffff169060200190929190505050610f70565b005b3480156107b957600080fd5b506107fc600480360360208110156107d057600080fd5b81019080803573ffffffffffffffffffffffffffffffffffffffff1690602001909291905050506110ab565b6040518082815260200191505060405180910390f35b34801561081e57600080fd5b506108276110c3565b005b6108556004803603602081101561083f57600080fd5b81019080803590602001909291905050506110f6565b005b34801561086357600080fd5b5061086c6115b1565b6040518082815260200191505060405180910390f35b60008054600181600116156101000203166002900480601f0160208091040260200160405190810160405280929190818152602001828054600181600116156101000203166002900480156109185780601f106108ed57610100808354040283529160200191610918565b820191906000526020600020905b8154815290600101906020018083116108fb57829003601f168201915b505050505081565b600560009054906101000a900473ffffffffffffffffffffffffffffffffffffffff1681565b6000600760009054906101000a900460ff16905090565b600360009054906101000a900473ffffffffffffffffffffffffffffffffffffffff1681565b600a6020528160005260406000208181548110151561099e57fe5b90600052602060002001600091509150508060000160009054906101000a900473ffffffffffffffffffffffffffffffffffffffff16905081565b60008060086000600560009054906101000a900473ffffffffffffffffffffffffffffffffffffffff1673ffffffffffffffffffffffffffffffffffffffff1673ffffffffffffffffffffffffffffffffffffffff1681526020019081526020016000205490508091505090565b6006602052806000526040600020600091509050806000015490806001018054600181600116156101000203166002900480601f016020809104026020016040519081016040528092919081815260200182805460018160011615610100020316600290048015610af95780601f10610ace57610100808354040283529160200191610af9565b820191906000526020600020905b815481529060010190602001808311610adc57829003601f168201915b5050505050908060020154908060030160009054906101000a900473ffffffffffffffffffffffffffffffffffffffff16908060040160009054906101000a900473ffffffffffffffffffffffffffffffffffffffff16908060040160149054906101000a900460ff16905086565b60008351111515610b7857600080fd5b600082111515610b8757600080fd5b6001600081548092919060010191905055506000600154905060c0604051908101604052808281526020018581526020018481526020013373ffffffffffffffffffffffffffffffffffffffff1681526020018373ffffffffffffffffffffffffffffffffffffffff1681526020016000151581525060066000838152602001908152602001600020600082015181600001556020820151816001019080519060200190610c369291906115b7565b506040820151816002015560608201518160030160006101000a81548173ffffffffffffffffffffffffffffffffffffffff021916908373ffffffffffffffffffffffffffffffffffffffff16021790555060808201518160040160006101000a81548173ffffffffffffffffffffffffffffffffffffffff021916908373ffffffffffffffffffffffffffffffffffffffff16021790555060a08201518160040160146101000a81548160ff0219169083151502179055509050507f694bf00112848e5e425efbfeca26dbe798788fac8c95f9a7f1b07e4ddd5238118185853386600060405180878152602001806020018681526020018573ffffffffffffffffffffffffffffffffffffffff1673ffffffffffffffffffffffffffffffffffffffff1681526020018473ffffffffffffffffffffffffffffffffffffffff1673ffffffffffffffffffffffffffffffffffffffff16815260200183151515158152602001828103825287818151815260200191508051906020019080838360005b83811015610dd4578082015181840152602081019050610db9565b50505050905090810190601f168015610e015780820380516001836020036101000a031916815260200191505b5097505050505050505060405180910390a133600360006101000a81548173ffffffffffffffffffffffffffffffffffffffff021916908373ffffffffffffffffffffffffffffffffffffffff16021790555050505050565b60086020528060005260406000206000915090505481565b600760009054906101000a900460ff161515610ea4576001600760006101000a81548160ff0219169083151502179055505b565b600460009054906101000a900473ffffffffffffffffffffffffffffffffffffffff1681565b600760009054906101000a900460ff1681565b600981815481101515610eee57fe5b906000526020600020016000915090508060000160009054906101000a900473ffffffffffffffffffffffffffffffffffffffff16905081565b81600860008373ffffffffffffffffffffffffffffffffffffffff1673ffffffffffffffffffffffffffffffffffffffff168152602001908152602001600020819055505050565b6001600260008373ffffffffffffffffffffffffffffffffffffffff1673ffffffffffffffffffffffffffffffffffffffff1681526020019081526020016000206000828254019250508190555060096020604051908101604052808473ffffffffffffffffffffffffffffffffffffffff1681525090806001815401808255809150509060018203906000526020600020016000909192909190915060008201518160000160006101000a81548173ffffffffffffffffffffffffffffffffffffffff021916908373ffffffffffffffffffffffffffffffffffffffff1602179055505050506009600a60008373ffffffffffffffffffffffffffffffffffffffff1673ffffffffffffffffffffffffffffffffffffffff1681526020019081526020016000209080546110a6929190611637565b505050565b60026020528060005260406000206000915090505481565b600760009054906101000a900460ff16156110f4576000600760006101000a81548160ff0219169083151502179055505b565b6110fe6116f0565b6006600083815260200190815260200160002060c0604051908101604052908160008201548152602001600182018054600181600116156101000203166002900480601f0160208091040260200160405190810160405280929190818152602001828054600181600116156101000203166002900480156111c05780601f10611195576101008083540402835291602001916111c0565b820191906000526020600020905b8154815290600101906020018083116111a357829003601f168201915b50505050508152602001600282015481526020016003820160009054906101000a900473ffffffffffffffffffffffffffffffffffffffff1673ffffffffffffffffffffffffffffffffffffffff1673ffffffffffffffffffffffffffffffffffffffff1681526020016004820160009054906101000a900473ffffffffffffffffffffffffffffffffffffffff1673ffffffffffffffffffffffffffffffffffffffff1673ffffffffffffffffffffffffffffffffffffffff1681526020016004820160149054906101000a900460ff1615151515815250509050600081606001519050600082600001511180156112bf5750600154826000015111155b15156112ca57600080fd5b816040015134101515156112dd57600080fd5b8160a001511515156112ee57600080fd5b60018260a001901515908115158152505081600660008581526020019081526020016000206000820151816000015560208201518160010190805190602001906113399291906115b7565b506040820151816002015560608201518160030160006101000a81548173ffffffffffffffffffffffffffffffffffffffff021916908373ffffffffffffffffffffffffffffffffffffffff16021790555060808201518160040160006101000a81548173ffffffffffffffffffffffffffffffffffffffff021916908373ffffffffffffffffffffffffffffffffffffffff16021790555060a08201518160040160146101000a81548160ff0219169083151502179055509050508073ffffffffffffffffffffffffffffffffffffffff166108fc83604001519081150290604051600060405180830381858888f1935050505015801561143f573d6000803e3d6000fd5b507f4ef5950e321d670c48a770ea38ea0f2ad7d2587599634f90a7da82f3361831ff600154836020015184604001518433600160405180878152602001806020018681526020018573ffffffffffffffffffffffffffffffffffffffff1673ffffffffffffffffffffffffffffffffffffffff1681526020018473ffffffffffffffffffffffffffffffffffffffff1673ffffffffffffffffffffffffffffffffffffffff16815260200183151515158152602001828103825287818151815260200191508051906020019080838360005b8381101561152c578082015181840152602081019050611511565b50505050905090810190601f1680156115595780820380516001836020036101000a031916815260200191505b5097505050505050505060405180910390a133600460006101000a81548173ffffffffffffffffffffffffffffffffffffffff021916908373ffffffffffffffffffffffffffffffffffffffff160217905550505050565b60015481565b828054600181600116156101000203166002900490600052602060002090601f016020900481019282601f106115f857805160ff1916838001178555611626565b82800160010185558215611626579182015b8281111561162557825182559160200191906001019061160a565b5b5090506116339190611755565b5090565b8280548282559060005260206000209081019282156116df5760005260206000209182015b828111156116de5782826000820160009054906101000a900473ffffffffffffffffffffffffffffffffffffffff168160000160006101000a81548173ffffffffffffffffffffffffffffffffffffffff021916908373ffffffffffffffffffffffffffffffffffffffff16021790555050509160010191906001019061165c565b5b5090506116ec919061177a565b5090565b60c060405190810160405280600081526020016060815260200160008152602001600073ffffffffffffffffffffffffffffffffffffffff168152602001600073ffffffffffffffffffffffffffffffffffffffff1681526020016000151581525090565b61177791905b8082111561177357600081600090555060010161175b565b5090565b90565b6117bd91905b808211156117b957600080820160006101000a81549073ffffffffffffffffffffffffffffffffffffffff021916905550600101611780565b5090565b9056fea165627a7a72305820bbd0604e8f78af1c2d9fd27b97669ac3bac9f29c9013cfa0a2c7249d07982c870029",
  "source": "pragma solidity ^0.5.0;\n\ncontract BillRentalPayment {\n    string public name;\n    \n    uint public numberOfTransactions = 0;\n    // uint public numberOfValidPayees = 0;\n    mapping(address => uint) public numberOfValidPayees;\n    \n    address payable public payee_who;\n    address payable public payer_who;\n    address public payer;\n    \n    mapping(uint => Bill) public bills; //need to have it private??\n    \n    \n    bool public payerAccountActive = true; //CHANGE TO MAPPING\n    \n    // uint public upperLimit = 50;\n    mapping(address => uint) public upperLimit;\n    \n    // ValidPayee[] public validListOfPayees;\n    ValidPayee[] public validListOfPayees;\n    mapping(address => ValidPayee[]) public validPayeesList;\n    // -----------------------------------------\n    //\n    //    Sectional Dividers Like This\n    //\n    // -----------------------------------------\n    \n    //[DONE]NEED TO HAVE ANOTHER BOOLEAN TO SEE IF THE PAYER IS STILL USING THIS SERVICE -- AND A FUNCTION WITH IF ELSE TO ABORT OR CONTINUE\n    \n    //[DONE IN SOLIDITY, NOT FRONT END] CONSEQUENTLY NEED A FUNCTION CALLED DEACTIVATE ACCOUNT TO SET TO FALSE\n    \n    //[REMOVED] NEED TO ALSO ADD ANOTHER PARAMETER SAY A PASSWORD SORT OF THING THAT ALL PAYEES SHOULD INCLUDE (DISTRIBUTED BY PAYER)\n    //[REMOVED] WHICH THE PAYEE NEEDS TO SPECIFY EVERYTIME HE REQUESTS PAYMENT SO THAT IT CAN BE VERIFIED IF HES AUTHORISED ORRRR \n    \n    //EACH PAYER WILL HAVE A LIST OF PAYEE ADDRESSES SO EVERYTIME A PAYMENT COMES THROUGH, IT WILL CHECK \n    //IF THE PAYEE IS AUTHORISED\n    \n    //[DONE]ADD A ADD VALID PAYEES SECTION IN THE WEBSITE \n    //[DONE] RELEVANT SMART CONTRACT FUNCTION HERE\n    \n    //[DONE]DISPLAY ONLY RELEVANT BILLS\n    \n    //MODIFIER???????/\n\n    struct Bill {\n        uint id;\n        string name;\n        uint amount;\n        address payable payee;\n        address payable payer;\n        bool alreadyPaid;\n    }\n    \n    struct ValidPayee {\n        address payable payee;\n        //bool alreadyRequestedOnceThisMonth\n    }\n    \n    event BillPaymentRequested(\n        uint id,\n        string name,\n        uint amount,\n        address payable payee,\n        address payable payer,\n        bool alreadyPaid\n    );\n\n    event BillPaid(\n        uint id,\n        string name,\n        uint amount,\n        address payable payee,\n        address payable payer,\n        bool alreadyPaid\n    );\n    \n    // modifier onlyPayer() {\n    //     require(msg.sender == payer);  //need to add to constructor payer = msg.sender but that will mean that when payee calls \n    //     _;                            // also it'll hold, so think about it\n    // }\n\n    constructor() public payable {\n        name = \"Portobillo\";\n        // payee = msg.sender;\n    }\n    \n    //NEED NONCE!!!\n\n    function requestPayment(string memory _name, uint _amount, address payable _payer) public {\n        // Require a valid name\n        require(bytes(_name).length > 0);\n        // Require a valid bill amount\n        require(_amount > 0);\n        \n        // Increment number of transactions so that the ID can be updated accordingly\n        numberOfTransactions ++;\n        \n        uint _id = numberOfTransactions;\n        // Create the bill\n        bills[_id] = Bill(_id, _name, _amount, msg.sender, _payer, false);\n        \n        // Trigger an event that bill has been requested by the payee \n        emit BillPaymentRequested(_id, _name, _amount, msg.sender, _payer, false);\n        payee_who = msg.sender;\n    }\n    \n    //CAN HAVE A FUNCTION TO GET BILL DETAILS BY PASSING IN ARGUMENT ID!!!!\n\n    function payBill(uint _id) public payable {\n        // Fetch the bill\n        Bill memory _bill = bills[_id];\n        // Fetch the payee\n        address payable _payee = _bill.payee;\n        \n        // Make sure the bill has a valid id -- to prevent scam? \n        require(_bill.id > 0 && _bill.id <= numberOfTransactions);\n        // Require that there is enough Ether in the transaction\n        require(msg.value >= _bill.amount);\n        // Require that the bill has not been paid already\n        require(!_bill.alreadyPaid);\n        //Valid Payee is checked for in the front end\n        \n        // Require that the buyer is not the seller -- REMOVE?\n        // require(_payee != msg.sender);\n        \n        // // Transfer ownership to the buyer\n        // _bill.payee = msg.sender; -- ownership transfer DOESNT APPLY\n        \n        // Mark as paid -- to prevent replay\n        _bill.alreadyPaid = true;\n        // Update the bill\n        bills[_id] = _bill;\n        // Pay the payee by sending them Ether\n        address(_payee).transfer(_bill.amount);\n        // Trigger an event\n        emit BillPaid(numberOfTransactions, _bill.name, _bill.amount, _payee, msg.sender, true);\n        payer_who = msg.sender; //REMOVE??\n    }\n    \n    function activateAccount() public {\n        if(!payerAccountActive) {\n            payerAccountActive = true;\n        }\n    }\n    \n    function deactivateAccount() public {\n        if(payerAccountActive) {\n            payerAccountActive = false;\n        }\n    }\n    \n    function getAccountStatus() public returns(bool) {\n        return payerAccountActive;\n    }\n    \n    function setUpperLimit(uint _upperLimit, address payable payer) public {\n        upperLimit[payer] = _upperLimit;\n    }\n    \n    function getUpperLimit() public returns(uint) {\n        uint upperLimitValue = upperLimit[payer];\n        return upperLimitValue;\n        // return upperLimit;\n    }\n    \n    function addValidPayee(address payable _validPayee, address payable payer) public {\n        //  numberOfValidPayees++;\n         numberOfValidPayees[payer] += 1;\n         \n         validListOfPayees.push(ValidPayee(_validPayee));\n        // Add payee\n        // validPayeesList[payer] = ValidPayee(_validPayee);\n        validPayeesList[payer] = validListOfPayees;\n        //validListOfPayees\n    }\n    \n    //CHANGE THE MAPPING FROM UINT TO ADDRESS SO THAT CAN REFER THE VALIDPAYEE FOR THE PAYER ADDRESS!!!!!!\n    \n    // function getValidPayees() public returns(ValidPayee[] memory) {\n    //     return validPayeesList;\n    // }\n    \n    //NEGATIVE AMOUNT REQUESTS ARE VALIDATED IN THE FRONT END\n    \n}\n\n\n\n\n\n\n\n//=================================================================================================================================\n\n\n// pragma solidity ^0.5.0;\n\n// contract BillRentalPayment {\n//     string public name;\n    \n//     uint public numberOfTransactions = 0;\n//     uint public numberOfValidPayees = 0;\n    \n//     address payable public payee_who;\n//     address payable public payer_who;\n//     address public payer;\n    \n//     mapping(uint => Bill) public bills; //need to have it private??\n    \n    \n//     bool public payerAccountActive = true;\n//     uint public upperLimit = 50;\n    \n//     ValidPayee[] public validListOfPayees;\n//     mapping(address => ValidPayee[]) public validPayeesList;\n    \n//     //[DONE]NEED TO HAVE ANOTHER BOOLEAN TO SEE IF THE PAYER IS STILL USING THIS SERVICE -- AND A FUNCTION WITH IF ELSE TO ABORT OR CONTINUE\n    \n//     //[DONE IN SOLIDITY, NOT FRONT END] CONSEQUENTLY NEED A FUNCTION CALLED DEACTIVATE ACCOUNT TO SET TO FALSE\n    \n//     //[REMOVED] NEED TO ALSO ADD ANOTHER PARAMETER SAY A PASSWORD SORT OF THING THAT ALL PAYEES SHOULD INCLUDE (DISTRIBUTED BY PAYER)\n//     //[REMOVED] WHICH THE PAYEE NEEDS TO SPECIFY EVERYTIME HE REQUESTS PAYMENT SO THAT IT CAN BE VERIFIED IF HES AUTHORISED ORRRR \n    \n//     //EACH PAYER WILL HAVE A LIST OF PAYEE ADDRESSES SO EVERYTIME A PAYMENT COMES THROUGH, IT WILL CHECK \n//     //IF THE PAYEE IS AUTHORISED\n    \n//     //ADD A ADD VALID PAYEES SECTION IN THE WEBSITE \n//     //[DONE] RELEVANT SMART CONTRACT FUNCTION HERE\n    \n//     //[DONE]DISPLAY ONLY RELEVANT BILLS\n    \n//     //MODIFIER???????/\n\n//     struct Bill {\n//         uint id;\n//         string name;\n//         uint amount;\n//         address payable payee;\n//         address payable payer;\n//         bool alreadyPaid;\n//     }\n    \n//     struct ValidPayee {\n//         address payable payee;\n//         //bool alreadyRequestedOnceThisMonth\n//     }\n    \n//     event BillPaymentRequested(\n//         uint id,\n//         string name,\n//         uint amount,\n//         address payable payee,\n//         address payable payer,\n//         bool alreadyPaid\n//     );\n\n//     event BillPaid(\n//         uint id,\n//         string name,\n//         uint amount,\n//         address payable payee,\n//         address payable payer,\n//         bool alreadyPaid\n//     );\n    \n//     // modifier onlyPayer() {\n//     //     require(msg.sender == payer);  //need to add to constructor payer = msg.sender but that will mean that when payee calls \n//     //     _;                            // also it'll hold, so think about it\n//     // }\n\n//     constructor() public payable {\n//         name = \"Portobillo\";\n//         // payee = msg.sender;\n//     }\n    \n//     //NEED NONCE!!!\n\n//     function requestPayment(string memory _name, uint _amount, address payable _payer) public {\n//         // Require a valid name\n//         require(bytes(_name).length > 0);\n//         // Require a valid bill amount\n//         require(_amount > 0);\n        \n//         // Increment number of transactions so that the ID can be updated accordingly\n//         numberOfTransactions ++;\n        \n//         uint _id = numberOfTransactions;\n//         // Create the bill\n//         bills[_id] = Bill(_id, _name, _amount, msg.sender, _payer, false);\n        \n//         // Trigger an event that bill has been requested by the payee \n//         emit BillPaymentRequested(_id, _name, _amount, msg.sender, _payer, false);\n//         payee_who = msg.sender;\n//     }\n    \n//     //CAN HAVE A FUNCTION TO GET BILL DETAILS BY PASSING IN ARGUMENT ID!!!!\n\n//     function payBill(uint _id) public payable {\n//         // Fetch the bill\n//         Bill memory _bill = bills[_id];\n//         // Fetch the payee\n//         address payable _payee = _bill.payee;\n        \n//         // Make sure the bill has a valid id -- to prevent scam? \n//         require(_bill.id > 0 && _bill.id <= numberOfTransactions);\n//         // Require that there is enough Ether in the transaction\n//         require(msg.value >= _bill.amount);\n//         // Require that the bill has not been paid already\n//         require(!_bill.alreadyPaid);\n//         //Valid Payee is checked for in the front end\n        \n//         // Require that the buyer is not the seller -- REMOVE?\n//         // require(_payee != msg.sender);\n        \n//         // // Transfer ownership to the buyer\n//         // _bill.payee = msg.sender; -- ownership transfer DOESNT APPLY\n        \n//         // Mark as paid -- to prevent replay\n//         _bill.alreadyPaid = true;\n//         // Update the bill\n//         bills[_id] = _bill;\n//         // Pay the payee by sending them Ether\n//         address(_payee).transfer(_bill.amount);\n//         // Trigger an event\n//         emit BillPaid(numberOfTransactions, _bill.name, _bill.amount, _payee, msg.sender, true);\n//         payer_who = msg.sender; //REMOVE??\n//     }\n    \n//     function activateAccount() public {\n//         if(!payerAccountActive) {\n//             payerAccountActive = true;\n//         }\n//     }\n    \n//     function deactivateAccount() public {\n//         if(payerAccountActive) {\n//             payerAccountActive = false;\n//         }\n//     }\n    \n//     function getAccountStatus() public returns(bool) {\n//         return payerAccountActive;\n//     }\n    \n//     function setUpperLimit(uint _upperLimit) public {\n//         upperLimit = _upperLimit;\n//     }\n    \n//     function getUpperLimit() public returns(uint) {\n//         return upperLimit;\n//     }\n    \n//     function addValidPayee(address payable _validPayee, address payable payer) public {\n//         //  numberOfValidPayees++;\n//          validListOfPayees.push(ValidPayee(_validPayee));\n//         // Add payee\n//         // validPayeesList[payer] = ValidPayee(_validPayee);\n//         validPayeesList[payer] = validListOfPayees;\n//         //validListOfPayees\n//     }\n    \n//     //CHANGE THE MAPPING FROM UINT TO ADDRESS SO THAT CAN REFER THE VALIDPAYEE FOR THE PAYER ADDRESS!!!!!!\n    \n//     // function getValidPayees() public returns(address[] memory) {\n//     //     return validPayeesList;\n//     // }\n    \n//     //NEGATIVE AMOUNT REQUESTS ARE VALIDATED IN THE FRONT END\n    \n// }\n\n\n\n\n//=================================================================================================================================\n\n\n\n\n// pragma solidity ^0.5.0;\n\n// contract BillRentalPayment {\n//     string public name;\n    \n//     uint public numberOfTransactions = 0;\n//     uint public numberOfValidPayees = 0;\n    \n//     address payable public payee_who;\n//     address payable public payer_who;\n    \n//     mapping(uint => Bill) public bills; //need to have it private??\n    \n    \n//     bool public payerAccountActive = true;\n//     uint public upperLimit = 50;\n    \n//     // address[] public validPayeesList;\n//     mapping(uint => ValidPayee) public validPayeesList;\n    \n//     //[DONE]NEED TO HAVE ANOTHER BOOLEAN TO SEE IF THE PAYER IS STILL USING THIS SERVICE -- AND A FUNCTION WITH IF ELSE TO ABORT OR CONTINUE\n    \n//     //[DONE IN SOLIDITY, NOT FRONT END] CONSEQUENTLY NEED A FUNCTION CALLED DEACTIVATE ACCOUNT TO SET TO FALSE\n    \n//     //[REMOVED] NEED TO ALSO ADD ANOTHER PARAMETER SAY A PASSWORD SORT OF THING THAT ALL PAYEES SHOULD INCLUDE (DISTRIBUTED BY PAYER)\n//     //[REMOVED] WHICH THE PAYEE NEEDS TO SPECIFY EVERYTIME HE REQUESTS PAYMENT SO THAT IT CAN BE VERIFIED IF HES AUTHORISED ORRRR \n    \n//     //EACH PAYER WILL HAVE A LIST OF PAYEE ADDRESSES SO EVERYTIME A PAYMENT COMES THROUGH, IT WILL CHECK \n//     //IF THE PAYEE IS AUTHORISED\n    \n//     //ADD A ADD VALID PAYEES SECTION IN THE WEBSITE \n//     //[DONE] RELEVANT SMART CONTRACT FUNCTION HERE\n    \n//     //[DONE]DISPLAY ONLY RELEVANT BILLS\n    \n//     //MODIFIER???????/\n\n//     struct Bill {\n//         uint id;\n//         string name;\n//         uint amount;\n//         address payable payee;\n//         address payable payer;\n//         bool alreadyPaid;\n//     }\n    \n//     struct ValidPayee {\n//         address payable payee;\n//     }\n    \n//     event BillPaymentRequested(\n//         uint id,\n//         string name,\n//         uint amount,\n//         address payable payee,\n//         address payable payer,\n//         bool alreadyPaid\n//     );\n\n//     event BillPaid(\n//         uint id,\n//         string name,\n//         uint amount,\n//         address payable payee,\n//         address payable payer,\n//         bool alreadyPaid\n//     );\n    \n//     // modifier onlyPayer() {\n//     //     require(msg.sender == payer);  //need to add to constructor payer = msg.sender but that will mean that when payee calls \n//     //     _;                            // also it'll hold, so think about it\n//     // }\n\n//     constructor() public payable {\n//         name = \"Portobillo\";\n//         // payee = msg.sender;\n//     }\n    \n//     //NEED NONCE!!!\n\n//     function requestPayment(string memory _name, uint _amount, address payable _payer) public {\n//         // Require a valid name\n//         require(bytes(_name).length > 0);\n//         // Require a valid bill amount\n//         require(_amount > 0);\n        \n//         // Increment number of transactions so that the ID can be updated accordingly\n//         numberOfTransactions ++;\n        \n//         uint _id = numberOfTransactions;\n//         // Create the bill\n//         bills[_id] = Bill(_id, _name, _amount, msg.sender, _payer, false);\n        \n//         // Trigger an event that bill has been requested by the payee \n//         emit BillPaymentRequested(_id, _name, _amount, msg.sender, _payer, false);\n//         payee_who = msg.sender;\n//     }\n    \n//     //CAN HAVE A FUNCTION TO GET BILL DETAILS BY PASSING IN ARGUMENT ID!!!!\n\n//     function payBill(uint _id) public payable {\n//         // Fetch the bill\n//         Bill memory _bill = bills[_id];\n//         // Fetch the payee\n//         address payable _payee = _bill.payee;\n        \n//         // Make sure the bill has a valid id -- to prevent scam? \n//         require(_bill.id > 0 && _bill.id <= numberOfTransactions);\n//         // Require that there is enough Ether in the transaction\n//         require(msg.value >= _bill.amount);\n//         // Require that the bill has not been paid already\n//         require(!_bill.alreadyPaid);\n//         //Valid Payee is checked for in the front end\n        \n//         // Require that the buyer is not the seller -- REMOVE?\n//         // require(_payee != msg.sender);\n        \n//         // // Transfer ownership to the buyer\n//         // _bill.payee = msg.sender; -- ownership transfer DOESNT APPLY\n        \n//         // Mark as paid -- to prevent replay\n//         _bill.alreadyPaid = true;\n//         // Update the bill\n//         bills[_id] = _bill;\n//         // Pay the payee by sending them Ether\n//         address(_payee).transfer(_bill.amount);\n//         // Trigger an event\n//         emit BillPaid(numberOfTransactions, _bill.name, _bill.amount, _payee, msg.sender, true);\n//         payer_who = msg.sender; //REMOVE??\n//     }\n    \n//     function activateAccount() public {\n//         if(!payerAccountActive) {\n//             payerAccountActive = true;\n//         }\n//     }\n    \n//     function deactivateAccount() public {\n//         if(payerAccountActive) {\n//             payerAccountActive = false;\n//         }\n//     }\n    \n//     function getAccountStatus() public returns(bool) {\n//         return payerAccountActive;\n//     }\n    \n//     function setUpperLimit(uint _upperLimit) public {\n//         upperLimit = _upperLimit;\n//     }\n    \n//     function getUpperLimit() public returns(uint) {\n//         return upperLimit;\n//     }\n    \n//     // function addValidPayee(address payable _validPayee) public {\n//     //     validPayeesList.push(_validPayee);\n//     //     numberOfValidPayees++;\n//     // }\n    \n//     function addValidPayee(address payable _validPayee) public {\n//          numberOfValidPayees++;\n//         // Add payee\n//         validPayeesList[numberOfValidPayees] = ValidPayee(_validPayee);\n//     }\n    \n//     // function getValidPayees() public returns(address[] memory) {\n//     //     return validPayeesList;\n//     // }\n    \n//     //NEGATIVE AMOUNT REQUESTS ARE VALIDATED IN THE FRONT END\n    \n// }\n\n\n\n//=================================================================================================================================\n\n\n\n\n// pragma solidity ^0.5.0;\n\n// contract BillRentalPayment {\n//     string public name;\n    \n//     uint public numberOfTransactions = 0;\n//     uint public numberOfValidPayees = 0;\n    \n//     address payable public payee_who;\n//     address payable public payer_who;\n    \n//     mapping(uint => Bill) public bills; //need to have it private??\n    \n//     bool public payerAccountActive = true;\n//     uint public upperLimit = 50;\n    \n//     address[] public validPayeesList;\n    \n//     //[DONE]NEED TO HAVE ANOTHER BOOLEAN TO SEE IF THE PAYER IS STILL USING THIS SERVICE -- AND A FUNCTION WITH IF ELSE TO ABORT OR CONTINUE\n    \n//     //[DONE IN SOLIDITY, NOT FRONT END] CONSEQUENTLY NEED A FUNCTION CALLED DEACTIVATE ACCOUNT TO SET TO FALSE\n    \n//     //[REMOVED] NEED TO ALSO ADD ANOTHER PARAMETER SAY A PASSWORD SORT OF THING THAT ALL PAYEES SHOULD INCLUDE (DISTRIBUTED BY PAYER)\n//     //[REMOVED] WHICH THE PAYEE NEEDS TO SPECIFY EVERYTIME HE REQUESTS PAYMENT SO THAT IT CAN BE VERIFIED IF HES AUTHORISED ORRRR \n    \n//     //EACH PAYER WILL HAVE A LIST OF PAYEE ADDRESSES SO EVERYTIME A PAYMENT COMES THROUGH, IT WILL CHECK \n//     //IF THE PAYEE IS AUTHORISED\n    \n//     //ADD A ADD VALID PAYEES SECTION IN THE WEBSITE \n//     //[DONE] RELEVANT SMART CONTRACT FUNCTION HERE\n    \n//     //[DONE]DISPLAY ONLY RELEVANT BILLS\n    \n//     //MODIFIER???????/\n\n//     struct Bill {\n//         uint id;\n//         string name;\n//         uint amount;\n//         address payable payee;\n//         address payable payer;\n//         bool alreadyPaid;\n//     }\n    \n//     event BillPaymentRequested(\n//         uint id,\n//         string name,\n//         uint amount,\n//         address payable payee,\n//         address payable payer,\n//         bool alreadyPaid\n//     );\n\n//     event BillPaid(\n//         uint id,\n//         string name,\n//         uint amount,\n//         address payable payee,\n//         address payable payer,\n//         bool alreadyPaid\n//     );\n    \n//     // modifier onlyPayer() {\n//     //     require(msg.sender == payer);  //need to add to constructor payer = msg.sender but that will mean that when payee calls \n//     //     _;                            // also it'll hold, so think about it\n//     // }\n\n//     constructor() public payable {\n//         name = \"Portobillo\";\n//         // payee = msg.sender;\n//     }\n    \n//     //NEED NONCE!!!\n\n//     function requestPayment(string memory _name, uint _amount, address payable _payer) public {\n//         // Require a valid name\n//         require(bytes(_name).length > 0);\n//         // Require a valid bill amount\n//         require(_amount > 0);\n        \n//         // Increment number of transactions so that the ID can be updated accordingly\n//         numberOfTransactions ++;\n        \n//         uint _id = numberOfTransactions;\n//         // Create the bill\n//         bills[_id] = Bill(_id, _name, _amount, msg.sender, _payer, false);\n        \n//         // Trigger an event that bill has been requested by the payee \n//         emit BillPaymentRequested(_id, _name, _amount, msg.sender, _payer, false);\n//         payee_who = msg.sender;\n//     }\n    \n//     //CAN HAVE A FUNCTION TO GET BILL DETAILS BY PASSING IN ARGUMENT ID!!!!\n\n//     function payBill(uint _id) public payable {\n//         // Fetch the bill\n//         Bill memory _bill = bills[_id];\n//         // Fetch the payee\n//         address payable _payee = _bill.payee;\n        \n//         // Make sure the bill has a valid id -- to prevent scam? \n//         require(_bill.id > 0 && _bill.id <= numberOfTransactions);\n//         // Require that there is enough Ether in the transaction\n//         require(msg.value >= _bill.amount);\n//         // Require that the bill has not been paid already\n//         require(!_bill.alreadyPaid);\n//         //Valid Payee is checked for in the front end\n        \n//         // Require that the buyer is not the seller -- REMOVE?\n//         // require(_payee != msg.sender);\n        \n//         // // Transfer ownership to the buyer\n//         // _bill.payee = msg.sender; -- ownership transfer DOESNT APPLY\n        \n//         // Mark as paid -- to prevent replay\n//         _bill.alreadyPaid = true;\n//         // Update the bill\n//         bills[_id] = _bill;\n//         // Pay the payee by sending them Ether\n//         address(_payee).transfer(_bill.amount);\n//         // Trigger an event\n//         emit BillPaid(numberOfTransactions, _bill.name, _bill.amount, _payee, msg.sender, true);\n//         payer_who = msg.sender; //REMOVE??\n//     }\n    \n//     function activateAccount() public {\n//         if(!payerAccountActive) {\n//             payerAccountActive = true;\n//         }\n//     }\n    \n//     function deactivateAccount() public {\n//         if(payerAccountActive) {\n//             payerAccountActive = false;\n//         }\n//     }\n    \n//     function getAccountStatus() public returns(bool) {\n//         return payerAccountActive;\n//     }\n    \n//     function setUpperLimit(uint _upperLimit) public {\n//         upperLimit = _upperLimit;\n//     }\n    \n//     function getUpperLimit() public returns(uint) {\n//         return upperLimit;\n//     }\n    \n//     function addValidPayee(address payable _validPayee) public {\n//         validPayeesList.push(_validPayee);\n//         numberOfValidPayees++;\n//     }\n    \n//     function getValidPayees() public returns(address[] memory) {\n//         return validPayeesList;\n//     }\n    \n//     //NEGATIVE AMOUNT REQUESTS ARE VALIDATED IN THE FRONT END\n    \n// }\n\n\n\n\n//=================================================================================================================================\n\n\n\n// pragma solidity ^0.5.0;\n\n// contract BillRentalPayment {\n//     string public name;\n    \n//     uint public numberOfTransactions = 0;\n    \n//     address payable public payee_who;\n//     address payable public payer_who;\n    \n//     mapping(uint => Bill) public bills; //need to have it private??\n    \n//     //NEED TO HAVE ANOTHER BOOLEAN TO SEE IF THE PAYER IS STILL USING THIS SERVICE -- AND A FUNCTION WITH IF ELSE TO ABORT OR CONTINUE\n    \n//     //NEED TO ALSO ADD ANOTHER PARAMETER SAY A PASSWORD SORT OF THING THAT ALL PAYEES SHOULD INCLUDE (DISTRIBUTED BY PAYER)\n//     //WHICH THE PAYEE NEEDS TO SPECIFY EVERYTIME HE REQUESTS PAYMENT SO THAT IT CAN BE VERIFIED IF HES AUTHORISED ORRRR \n    \n//     //ORRRRRRRRRRRRRRRRRRRR EACH PAYER WILL HAVE A LIST OF PAYEE ADDRESSES SO EVERYTIME A PAYMENT COMES THROUGH, IT WILL CHECK \n//     //IF THE PAYEE IS AUTHORISED\n\n//     struct Bill {\n//         uint id;\n//         string name;\n//         uint amount;\n//         address payable payee;\n//         address payable payer;\n//         bool alreadyPaid;\n//     }\n    \n//     event BillPaymentRequested(\n//         uint id,\n//         string name,\n//         uint amount,\n//         address payable payee,\n//         address payable payer,\n//         bool alreadyPaid\n//     );\n\n//     event BillPaid(\n//         uint id,\n//         string name,\n//         uint amount,\n//         address payable payee,\n//         address payable payer,\n//         bool alreadyPaid\n//     );\n    \n//     // modifier onlyPayer() {\n//     //     require(msg.sender == payer);  //need to add to constructor payer = msg.sender but that will mean that when payee calls \n//     //     _;                            // also it'll hold, so think about it\n//     // }\n\n//     constructor() public payable {\n//         name = \"Portobillo\";\n//         // payee = msg.sender;\n//     }\n    \n//     //NEED NONCE!!!\n\n//     function requestPayment(string memory _name, uint _amount, address payable _payer) public {\n//         // Require a valid name\n//         require(bytes(_name).length > 0);\n//         // Require a valid bill amount\n//         require(_amount > 0);\n        \n//         // Increment number of transactions so that the ID can be updated accordingly\n//         numberOfTransactions ++;\n        \n//         uint _id = numberOfTransactions;\n//         // Create the bill\n//         bills[_id] = Bill(_id, _name, _amount, msg.sender, _payer, false);\n        \n//         // Trigger an event that bill has been requested by the payee \n//         emit BillPaymentRequested(_id, _name, _amount, msg.sender, _payer, false);\n//         payee_who = msg.sender;\n//     }\n    \n//     //CAN HAVE A FUNCTION TO GET BILL DETAILS BY PASSING IN ARGUMENT ID!!!!\n\n//     function payBill(uint _id) public payable {\n//         // Fetch the bill\n//         Bill memory _bill = bills[_id];\n//         // Fetch the payee\n//         address payable _payee = _bill.payee;\n        \n//         // Make sure the bill has a valid id -- to prevent scam? \n//         require(_bill.id > 0 && _bill.id <= numberOfTransactions);\n//         // Require that there is enough Ether in the transaction\n//         require(msg.value >= _bill.amount);\n//         // Require that the bill has not been paid already\n//         require(!_bill.alreadyPaid);\n        \n//         // Require that the buyer is not the seller -- REMOVE?\n//         // require(_payee != msg.sender);\n        \n//         // // Transfer ownership to the buyer\n//         // _bill.payee = msg.sender; -- ownership transfer DOESNT APPLY\n        \n//         // Mark as paid -- to prevent replay\n//         _bill.alreadyPaid = true;\n//         // Update the bill\n//         bills[_id] = _bill;\n//         // Pay the payee by sending them Ether\n//         address(_payee).transfer(_bill.amount);\n//         // Trigger an event\n//         emit BillPaid(numberOfTransactions, _bill.name, _bill.amount, _payee, msg.sender, true);\n//         payer_who = msg.sender; //REMOVE??\n//     }\n// }\n\n\n\n\n\n\n\n\n",
  "sourcePath": "/Users/sanjayshankar/Documents/GitHub/blockchain-final-project/src/contracts/BillRentalPayment.sol",
  "compiler": {
    "name": "solc",
    "version": "0.5.0+commit.1d4f565a.Emscripten.clang"
  },
  "schemaVersion": "3.0.2",
  "updatedAt": "2020-04-26T08:53:17.083Z",
  "devdoc": {
    "methods": {}
  },
  "userdoc": {
    "methods": {}
  }
}