{
  "contractName": "BillRentalPayment",
  "abi": [
    {
      "constant": true,
      "inputs": [],
      "name": "name",
      "outputs": [
        {
          "name": "",
          "type": "string"
        }
      ],
      "payable": false,
      "stateMutability": "view",
      "type": "function",
      "signature": "0x06fdde03"
    },
    {
      "constant": true,
      "inputs": [],
      "name": "numberOfValidPayees",
      "outputs": [
        {
          "name": "",
          "type": "uint256"
        }
      ],
      "payable": false,
      "stateMutability": "view",
      "type": "function",
      "signature": "0x08885326"
    },
    {
      "constant": true,
      "inputs": [],
      "name": "payee_who",
      "outputs": [
        {
          "name": "",
          "type": "address"
        }
      ],
      "payable": false,
      "stateMutability": "view",
      "type": "function",
      "signature": "0x1d1cc760"
    },
    {
      "constant": true,
      "inputs": [
        {
          "name": "",
          "type": "uint256"
        }
      ],
      "name": "bills",
      "outputs": [
        {
          "name": "id",
          "type": "uint256"
        },
        {
          "name": "name",
          "type": "string"
        },
        {
          "name": "amount",
          "type": "uint256"
        },
        {
          "name": "payee",
          "type": "address"
        },
        {
          "name": "payer",
          "type": "address"
        },
        {
          "name": "alreadyPaid",
          "type": "bool"
        }
      ],
      "payable": false,
      "stateMutability": "view",
      "type": "function",
      "signature": "0x28bdcde8"
    },
    {
      "constant": true,
      "inputs": [],
      "name": "upperLimit",
      "outputs": [
        {
          "name": "",
          "type": "uint256"
        }
      ],
      "payable": false,
      "stateMutability": "view",
      "type": "function",
      "signature": "0x38392c40"
    },
    {
      "constant": true,
      "inputs": [
        {
          "name": "",
          "type": "uint256"
        }
      ],
      "name": "validPayeesList",
      "outputs": [
        {
          "name": "payee",
          "type": "address"
        }
      ],
      "payable": false,
      "stateMutability": "view",
      "type": "function",
      "signature": "0x71a164e4"
    },
    {
      "constant": true,
      "inputs": [],
      "name": "payer_who",
      "outputs": [
        {
          "name": "",
          "type": "address"
        }
      ],
      "payable": false,
      "stateMutability": "view",
      "type": "function",
      "signature": "0x8ae49608"
    },
    {
      "constant": true,
      "inputs": [],
      "name": "payerAccountActive",
      "outputs": [
        {
          "name": "",
          "type": "bool"
        }
      ],
      "payable": false,
      "stateMutability": "view",
      "type": "function",
      "signature": "0x980bdf46"
    },
    {
      "constant": true,
      "inputs": [],
      "name": "numberOfTransactions",
      "outputs": [
        {
          "name": "",
          "type": "uint256"
        }
      ],
      "payable": false,
      "stateMutability": "view",
      "type": "function",
      "signature": "0xf8d3afa4"
    },
    {
      "inputs": [],
      "payable": true,
      "stateMutability": "payable",
      "type": "constructor",
      "signature": "constructor"
    },
    {
      "anonymous": false,
      "inputs": [
        {
          "indexed": false,
          "name": "id",
          "type": "uint256"
        },
        {
          "indexed": false,
          "name": "name",
          "type": "string"
        },
        {
          "indexed": false,
          "name": "amount",
          "type": "uint256"
        },
        {
          "indexed": false,
          "name": "payee",
          "type": "address"
        },
        {
          "indexed": false,
          "name": "payer",
          "type": "address"
        },
        {
          "indexed": false,
          "name": "alreadyPaid",
          "type": "bool"
        }
      ],
      "name": "BillPaymentRequested",
      "type": "event",
      "signature": "0x694bf00112848e5e425efbfeca26dbe798788fac8c95f9a7f1b07e4ddd523811"
    },
    {
      "anonymous": false,
      "inputs": [
        {
          "indexed": false,
          "name": "id",
          "type": "uint256"
        },
        {
          "indexed": false,
          "name": "name",
          "type": "string"
        },
        {
          "indexed": false,
          "name": "amount",
          "type": "uint256"
        },
        {
          "indexed": false,
          "name": "payee",
          "type": "address"
        },
        {
          "indexed": false,
          "name": "payer",
          "type": "address"
        },
        {
          "indexed": false,
          "name": "alreadyPaid",
          "type": "bool"
        }
      ],
      "name": "BillPaid",
      "type": "event",
      "signature": "0x4ef5950e321d670c48a770ea38ea0f2ad7d2587599634f90a7da82f3361831ff"
    },
    {
      "constant": false,
      "inputs": [
        {
          "name": "_name",
          "type": "string"
        },
        {
          "name": "_amount",
          "type": "uint256"
        },
        {
          "name": "_payer",
          "type": "address"
        }
      ],
      "name": "requestPayment",
      "outputs": [],
      "payable": false,
      "stateMutability": "nonpayable",
      "type": "function",
      "signature": "0x392183aa"
    },
    {
      "constant": false,
      "inputs": [
        {
          "name": "_id",
          "type": "uint256"
        }
      ],
      "name": "payBill",
      "outputs": [],
      "payable": true,
      "stateMutability": "payable",
      "type": "function",
      "signature": "0xf0975190"
    },
    {
      "constant": false,
      "inputs": [],
      "name": "activateAccount",
      "outputs": [],
      "payable": false,
      "stateMutability": "nonpayable",
      "type": "function",
      "signature": "0x6f26f7d8"
    },
    {
      "constant": false,
      "inputs": [],
      "name": "deactivateAccount",
      "outputs": [],
      "payable": false,
      "stateMutability": "nonpayable",
      "type": "function",
      "signature": "0xe040e9a0"
    },
    {
      "constant": false,
      "inputs": [],
      "name": "getAccountStatus",
      "outputs": [
        {
          "name": "",
          "type": "bool"
        }
      ],
      "payable": false,
      "stateMutability": "nonpayable",
      "type": "function",
      "signature": "0x1b7035ea"
    },
    {
      "constant": false,
      "inputs": [
        {
          "name": "_upperLimit",
          "type": "uint256"
        }
      ],
      "name": "setUpperLimit",
      "outputs": [],
      "payable": false,
      "stateMutability": "nonpayable",
      "type": "function",
      "signature": "0xd54d4e02"
    },
    {
      "constant": false,
      "inputs": [],
      "name": "getUpperLimit",
      "outputs": [
        {
          "name": "",
          "type": "uint256"
        }
      ],
      "payable": false,
      "stateMutability": "nonpayable",
      "type": "function",
      "signature": "0x1f5f528d"
    },
    {
      "constant": false,
      "inputs": [
        {
          "name": "_validPayee",
          "type": "address"
        }
      ],
      "name": "addValidPayee",
      "outputs": [],
      "payable": false,
      "stateMutability": "nonpayable",
      "type": "function",
      "signature": "0x92e929f4"
    }
  ],
  "bytecode": "0x6080604052600060015560006002556001600660006101000a81548160ff02191690831515021790555060326007556040805190810160405280600a81526020017f506f72746f62696c6c6f00000000000000000000000000000000000000000000815250600090805190602001906200007b92919062000082565b5062000131565b828054600181600116156101000203166002900490600052602060002090601f016020900481019282601f10620000c557805160ff1916838001178555620000f6565b82800160010185558215620000f6579182015b82811115620000f5578251825591602001919060010190620000d8565b5b50905062000105919062000109565b5090565b6200012e91905b808211156200012a57600081600090555060010162000110565b5090565b90565b61134380620001416000396000f3fe6080604052600436106100f1576000357c0100000000000000000000000000000000000000000000000000000000900463ffffffff16806306fdde03146100f657806308885326146101865780631b7035ea146101b15780631d1cc760146101e05780631f5f528d1461023757806328bdcde81461026257806338392c4014610395578063392183aa146103c05780636f26f7d8146104b257806371a164e4146104c95780638ae496081461054457806392e929f41461059b578063980bdf46146105ec578063d54d4e021461061b578063e040e9a014610656578063f09751901461066d578063f8d3afa41461069b575b600080fd5b34801561010257600080fd5b5061010b6106c6565b6040518080602001828103825283818151815260200191508051906020019080838360005b8381101561014b578082015181840152602081019050610130565b50505050905090810190601f1680156101785780820380516001836020036101000a031916815260200191505b509250505060405180910390f35b34801561019257600080fd5b5061019b610764565b6040518082815260200191505060405180910390f35b3480156101bd57600080fd5b506101c661076a565b604051808215151515815260200191505060405180910390f35b3480156101ec57600080fd5b506101f5610781565b604051808273ffffffffffffffffffffffffffffffffffffffff1673ffffffffffffffffffffffffffffffffffffffff16815260200191505060405180910390f35b34801561024357600080fd5b5061024c6107a7565b6040518082815260200191505060405180910390f35b34801561026e57600080fd5b5061029b6004803603602081101561028557600080fd5b81019080803590602001909291905050506107b1565b60405180878152602001806020018681526020018573ffffffffffffffffffffffffffffffffffffffff1673ffffffffffffffffffffffffffffffffffffffff1681526020018473ffffffffffffffffffffffffffffffffffffffff1673ffffffffffffffffffffffffffffffffffffffff16815260200183151515158152602001828103825287818151815260200191508051906020019080838360005b8381101561035557808201518184015260208101905061033a565b50505050905090810190601f1680156103825780820380516001836020036101000a031916815260200191505b5097505050505050505060405180910390f35b3480156103a157600080fd5b506103aa6108d2565b6040518082815260200191505060405180910390f35b3480156103cc57600080fd5b506104b0600480360360608110156103e357600080fd5b810190808035906020019064010000000081111561040057600080fd5b82018360208201111561041257600080fd5b8035906020019184600183028401116401000000008311171561043457600080fd5b91908080601f016020809104026020016040519081016040528093929190818152602001838380828437600081840152601f19601f82011690508083019250505050505050919291929080359060200190929190803573ffffffffffffffffffffffffffffffffffffffff1690602001909291905050506108d8565b005b3480156104be57600080fd5b506104c7610bca565b005b3480156104d557600080fd5b50610502600480360360208110156104ec57600080fd5b8101908080359060200190929190505050610bfe565b604051808273ffffffffffffffffffffffffffffffffffffffff1673ffffffffffffffffffffffffffffffffffffffff16815260200191505060405180910390f35b34801561055057600080fd5b50610559610c3c565b604051808273ffffffffffffffffffffffffffffffffffffffff1673ffffffffffffffffffffffffffffffffffffffff16815260200191505060405180910390f35b3480156105a757600080fd5b506105ea600480360360208110156105be57600080fd5b81019080803573ffffffffffffffffffffffffffffffffffffffff169060200190929190505050610c62565b005b3480156105f857600080fd5b50610601610cfc565b604051808215151515815260200191505060405180910390f35b34801561062757600080fd5b506106546004803603602081101561063e57600080fd5b8101908080359060200190929190505050610d0f565b005b34801561066257600080fd5b5061066b610d19565b005b6106996004803603602081101561068357600080fd5b8101908080359060200190929190505050610d4c565b005b3480156106a757600080fd5b506106b0611207565b6040518082815260200191505060405180910390f35b60008054600181600116156101000203166002900480601f01602080910402602001604051908101604052809291908181526020018280546001816001161561010002031660029004801561075c5780601f106107315761010080835404028352916020019161075c565b820191906000526020600020905b81548152906001019060200180831161073f57829003601f168201915b505050505081565b60025481565b6000600660009054906101000a900460ff16905090565b600360009054906101000a900473ffffffffffffffffffffffffffffffffffffffff1681565b6000600754905090565b6005602052806000526040600020600091509050806000015490806001018054600181600116156101000203166002900480601f0160208091040260200160405190810160405280929190818152602001828054600181600116156101000203166002900480156108635780601f1061083857610100808354040283529160200191610863565b820191906000526020600020905b81548152906001019060200180831161084657829003601f168201915b5050505050908060020154908060030160009054906101000a900473ffffffffffffffffffffffffffffffffffffffff16908060040160009054906101000a900473ffffffffffffffffffffffffffffffffffffffff16908060040160149054906101000a900460ff16905086565b60075481565b600083511115156108e857600080fd5b6000821115156108f757600080fd5b6001600081548092919060010191905055506000600154905060c0604051908101604052808281526020018581526020018481526020013373ffffffffffffffffffffffffffffffffffffffff1681526020018373ffffffffffffffffffffffffffffffffffffffff16815260200160001515815250600560008381526020019081526020016000206000820151816000015560208201518160010190805190602001906109a692919061120d565b506040820151816002015560608201518160030160006101000a81548173ffffffffffffffffffffffffffffffffffffffff021916908373ffffffffffffffffffffffffffffffffffffffff16021790555060808201518160040160006101000a81548173ffffffffffffffffffffffffffffffffffffffff021916908373ffffffffffffffffffffffffffffffffffffffff16021790555060a08201518160040160146101000a81548160ff0219169083151502179055509050507f694bf00112848e5e425efbfeca26dbe798788fac8c95f9a7f1b07e4ddd5238118185853386600060405180878152602001806020018681526020018573ffffffffffffffffffffffffffffffffffffffff1673ffffffffffffffffffffffffffffffffffffffff1681526020018473ffffffffffffffffffffffffffffffffffffffff1673ffffffffffffffffffffffffffffffffffffffff16815260200183151515158152602001828103825287818151815260200191508051906020019080838360005b83811015610b44578082015181840152602081019050610b29565b50505050905090810190601f168015610b715780820380516001836020036101000a031916815260200191505b5097505050505050505060405180910390a133600360006101000a81548173ffffffffffffffffffffffffffffffffffffffff021916908373ffffffffffffffffffffffffffffffffffffffff16021790555050505050565b600660009054906101000a900460ff161515610bfc576001600660006101000a81548160ff0219169083151502179055505b565b60086020528060005260406000206000915090508060000160009054906101000a900473ffffffffffffffffffffffffffffffffffffffff16905081565b600460009054906101000a900473ffffffffffffffffffffffffffffffffffffffff1681565b6002600081548092919060010191905055506020604051908101604052808273ffffffffffffffffffffffffffffffffffffffff1681525060086000600254815260200190815260200160002060008201518160000160006101000a81548173ffffffffffffffffffffffffffffffffffffffff021916908373ffffffffffffffffffffffffffffffffffffffff16021790555090505050565b600660009054906101000a900460ff1681565b8060078190555050565b600660009054906101000a900460ff1615610d4a576000600660006101000a81548160ff0219169083151502179055505b565b610d5461128d565b6005600083815260200190815260200160002060c0604051908101604052908160008201548152602001600182018054600181600116156101000203166002900480601f016020809104026020016040519081016040528092919081815260200182805460018160011615610100020316600290048015610e165780601f10610deb57610100808354040283529160200191610e16565b820191906000526020600020905b815481529060010190602001808311610df957829003601f168201915b50505050508152602001600282015481526020016003820160009054906101000a900473ffffffffffffffffffffffffffffffffffffffff1673ffffffffffffffffffffffffffffffffffffffff1673ffffffffffffffffffffffffffffffffffffffff1681526020016004820160009054906101000a900473ffffffffffffffffffffffffffffffffffffffff1673ffffffffffffffffffffffffffffffffffffffff1673ffffffffffffffffffffffffffffffffffffffff1681526020016004820160149054906101000a900460ff161515151581525050905060008160600151905060008260000151118015610f155750600154826000015111155b1515610f2057600080fd5b81604001513410151515610f3357600080fd5b8160a00151151515610f4457600080fd5b60018260a00190151590811515815250508160056000858152602001908152602001600020600082015181600001556020820151816001019080519060200190610f8f92919061120d565b506040820151816002015560608201518160030160006101000a81548173ffffffffffffffffffffffffffffffffffffffff021916908373ffffffffffffffffffffffffffffffffffffffff16021790555060808201518160040160006101000a81548173ffffffffffffffffffffffffffffffffffffffff021916908373ffffffffffffffffffffffffffffffffffffffff16021790555060a08201518160040160146101000a81548160ff0219169083151502179055509050508073ffffffffffffffffffffffffffffffffffffffff166108fc83604001519081150290604051600060405180830381858888f19350505050158015611095573d6000803e3d6000fd5b507f4ef5950e321d670c48a770ea38ea0f2ad7d2587599634f90a7da82f3361831ff600154836020015184604001518433600160405180878152602001806020018681526020018573ffffffffffffffffffffffffffffffffffffffff1673ffffffffffffffffffffffffffffffffffffffff1681526020018473ffffffffffffffffffffffffffffffffffffffff1673ffffffffffffffffffffffffffffffffffffffff16815260200183151515158152602001828103825287818151815260200191508051906020019080838360005b83811015611182578082015181840152602081019050611167565b50505050905090810190601f1680156111af5780820380516001836020036101000a031916815260200191505b5097505050505050505060405180910390a133600460006101000a81548173ffffffffffffffffffffffffffffffffffffffff021916908373ffffffffffffffffffffffffffffffffffffffff160217905550505050565b60015481565b828054600181600116156101000203166002900490600052602060002090601f016020900481019282601f1061124e57805160ff191683800117855561127c565b8280016001018555821561127c579182015b8281111561127b578251825591602001919060010190611260565b5b50905061128991906112f2565b5090565b60c060405190810160405280600081526020016060815260200160008152602001600073ffffffffffffffffffffffffffffffffffffffff168152602001600073ffffffffffffffffffffffffffffffffffffffff1681526020016000151581525090565b61131491905b808211156113105760008160009055506001016112f8565b5090565b9056fea165627a7a72305820cc2bcb563aa3c34cc73d3ae4b5792ff82d62e04ee061372663f29ca26c7a27560029",
  "source": "pragma solidity ^0.5.0;\n\ncontract BillRentalPayment {\n    string public name;\n    \n    uint public numberOfTransactions = 0;\n    uint public numberOfValidPayees = 0;\n    \n    address payable public payee_who;\n    address payable public payer_who;\n    \n    mapping(uint => Bill) public bills; //need to have it private??\n    \n    \n    bool public payerAccountActive = true;\n    uint public upperLimit = 50;\n    \n    // address[] public validPayeesList;\n    mapping(uint => ValidPayee) public validPayeesList;\n    \n    //[DONE]NEED TO HAVE ANOTHER BOOLEAN TO SEE IF THE PAYER IS STILL USING THIS SERVICE -- AND A FUNCTION WITH IF ELSE TO ABORT OR CONTINUE\n    \n    //[DONE IN SOLIDITY, NOT FRONT END] CONSEQUENTLY NEED A FUNCTION CALLED DEACTIVATE ACCOUNT TO SET TO FALSE\n    \n    //[REMOVED] NEED TO ALSO ADD ANOTHER PARAMETER SAY A PASSWORD SORT OF THING THAT ALL PAYEES SHOULD INCLUDE (DISTRIBUTED BY PAYER)\n    //[REMOVED] WHICH THE PAYEE NEEDS TO SPECIFY EVERYTIME HE REQUESTS PAYMENT SO THAT IT CAN BE VERIFIED IF HES AUTHORISED ORRRR \n    \n    //EACH PAYER WILL HAVE A LIST OF PAYEE ADDRESSES SO EVERYTIME A PAYMENT COMES THROUGH, IT WILL CHECK \n    //IF THE PAYEE IS AUTHORISED\n    \n    //ADD A ADD VALID PAYEES SECTION IN THE WEBSITE \n    //[DONE] RELEVANT SMART CONTRACT FUNCTION HERE\n    \n    //[DONE]DISPLAY ONLY RELEVANT BILLS\n    \n    //MODIFIER???????/\n\n    struct Bill {\n        uint id;\n        string name;\n        uint amount;\n        address payable payee;\n        address payable payer;\n        bool alreadyPaid;\n    }\n    \n    struct ValidPayee {\n        address payable payee;\n    }\n    \n    event BillPaymentRequested(\n        uint id,\n        string name,\n        uint amount,\n        address payable payee,\n        address payable payer,\n        bool alreadyPaid\n    );\n\n    event BillPaid(\n        uint id,\n        string name,\n        uint amount,\n        address payable payee,\n        address payable payer,\n        bool alreadyPaid\n    );\n    \n    // modifier onlyPayer() {\n    //     require(msg.sender == payer);  //need to add to constructor payer = msg.sender but that will mean that when payee calls \n    //     _;                            // also it'll hold, so think about it\n    // }\n\n    constructor() public payable {\n        name = \"Portobillo\";\n        // payee = msg.sender;\n    }\n    \n    //NEED NONCE!!!\n\n    function requestPayment(string memory _name, uint _amount, address payable _payer) public {\n        // Require a valid name\n        require(bytes(_name).length > 0);\n        // Require a valid bill amount\n        require(_amount > 0);\n        \n        // Increment number of transactions so that the ID can be updated accordingly\n        numberOfTransactions ++;\n        \n        uint _id = numberOfTransactions;\n        // Create the bill\n        bills[_id] = Bill(_id, _name, _amount, msg.sender, _payer, false);\n        \n        // Trigger an event that bill has been requested by the payee \n        emit BillPaymentRequested(_id, _name, _amount, msg.sender, _payer, false);\n        payee_who = msg.sender;\n    }\n    \n    //CAN HAVE A FUNCTION TO GET BILL DETAILS BY PASSING IN ARGUMENT ID!!!!\n\n    function payBill(uint _id) public payable {\n        // Fetch the bill\n        Bill memory _bill = bills[_id];\n        // Fetch the payee\n        address payable _payee = _bill.payee;\n        \n        // Make sure the bill has a valid id -- to prevent scam? \n        require(_bill.id > 0 && _bill.id <= numberOfTransactions);\n        // Require that there is enough Ether in the transaction\n        require(msg.value >= _bill.amount);\n        // Require that the bill has not been paid already\n        require(!_bill.alreadyPaid);\n        //Valid Payee is checked for in the front end\n        \n        // Require that the buyer is not the seller -- REMOVE?\n        // require(_payee != msg.sender);\n        \n        // // Transfer ownership to the buyer\n        // _bill.payee = msg.sender; -- ownership transfer DOESNT APPLY\n        \n        // Mark as paid -- to prevent replay\n        _bill.alreadyPaid = true;\n        // Update the bill\n        bills[_id] = _bill;\n        // Pay the payee by sending them Ether\n        address(_payee).transfer(_bill.amount);\n        // Trigger an event\n        emit BillPaid(numberOfTransactions, _bill.name, _bill.amount, _payee, msg.sender, true);\n        payer_who = msg.sender; //REMOVE??\n    }\n    \n    function activateAccount() public {\n        if(!payerAccountActive) {\n            payerAccountActive = true;\n        }\n    }\n    \n    function deactivateAccount() public {\n        if(payerAccountActive) {\n            payerAccountActive = false;\n        }\n    }\n    \n    function getAccountStatus() public returns(bool) {\n        return payerAccountActive;\n    }\n    \n    function setUpperLimit(uint _upperLimit) public {\n        upperLimit = _upperLimit;\n    }\n    \n    function getUpperLimit() public returns(uint) {\n        return upperLimit;\n    }\n    \n    // function addValidPayee(address payable _validPayee) public {\n    //     validPayeesList.push(_validPayee);\n    //     numberOfValidPayees++;\n    // }\n    \n    function addValidPayee(address payable _validPayee) public {\n         numberOfValidPayees++;\n        // Add payee\n        validPayeesList[numberOfValidPayees] = ValidPayee(_validPayee);\n    }\n    \n    // function getValidPayees() public returns(address[] memory) {\n    //     return validPayeesList;\n    // }\n    \n    //NEGATIVE AMOUNT REQUESTS ARE VALIDATED IN THE FRONT END\n    \n}\n\n\n\n//=================================================================================================================================\n\n\n\n\n// pragma solidity ^0.5.0;\n\n// contract BillRentalPayment {\n//     string public name;\n    \n//     uint public numberOfTransactions = 0;\n//     uint public numberOfValidPayees = 0;\n    \n//     address payable public payee_who;\n//     address payable public payer_who;\n    \n//     mapping(uint => Bill) public bills; //need to have it private??\n    \n//     bool public payerAccountActive = true;\n//     uint public upperLimit = 50;\n    \n//     address[] public validPayeesList;\n    \n//     //[DONE]NEED TO HAVE ANOTHER BOOLEAN TO SEE IF THE PAYER IS STILL USING THIS SERVICE -- AND A FUNCTION WITH IF ELSE TO ABORT OR CONTINUE\n    \n//     //[DONE IN SOLIDITY, NOT FRONT END] CONSEQUENTLY NEED A FUNCTION CALLED DEACTIVATE ACCOUNT TO SET TO FALSE\n    \n//     //[REMOVED] NEED TO ALSO ADD ANOTHER PARAMETER SAY A PASSWORD SORT OF THING THAT ALL PAYEES SHOULD INCLUDE (DISTRIBUTED BY PAYER)\n//     //[REMOVED] WHICH THE PAYEE NEEDS TO SPECIFY EVERYTIME HE REQUESTS PAYMENT SO THAT IT CAN BE VERIFIED IF HES AUTHORISED ORRRR \n    \n//     //EACH PAYER WILL HAVE A LIST OF PAYEE ADDRESSES SO EVERYTIME A PAYMENT COMES THROUGH, IT WILL CHECK \n//     //IF THE PAYEE IS AUTHORISED\n    \n//     //ADD A ADD VALID PAYEES SECTION IN THE WEBSITE \n//     //[DONE] RELEVANT SMART CONTRACT FUNCTION HERE\n    \n//     //[DONE]DISPLAY ONLY RELEVANT BILLS\n    \n//     //MODIFIER???????/\n\n//     struct Bill {\n//         uint id;\n//         string name;\n//         uint amount;\n//         address payable payee;\n//         address payable payer;\n//         bool alreadyPaid;\n//     }\n    \n//     event BillPaymentRequested(\n//         uint id,\n//         string name,\n//         uint amount,\n//         address payable payee,\n//         address payable payer,\n//         bool alreadyPaid\n//     );\n\n//     event BillPaid(\n//         uint id,\n//         string name,\n//         uint amount,\n//         address payable payee,\n//         address payable payer,\n//         bool alreadyPaid\n//     );\n    \n//     // modifier onlyPayer() {\n//     //     require(msg.sender == payer);  //need to add to constructor payer = msg.sender but that will mean that when payee calls \n//     //     _;                            // also it'll hold, so think about it\n//     // }\n\n//     constructor() public payable {\n//         name = \"Portobillo\";\n//         // payee = msg.sender;\n//     }\n    \n//     //NEED NONCE!!!\n\n//     function requestPayment(string memory _name, uint _amount, address payable _payer) public {\n//         // Require a valid name\n//         require(bytes(_name).length > 0);\n//         // Require a valid bill amount\n//         require(_amount > 0);\n        \n//         // Increment number of transactions so that the ID can be updated accordingly\n//         numberOfTransactions ++;\n        \n//         uint _id = numberOfTransactions;\n//         // Create the bill\n//         bills[_id] = Bill(_id, _name, _amount, msg.sender, _payer, false);\n        \n//         // Trigger an event that bill has been requested by the payee \n//         emit BillPaymentRequested(_id, _name, _amount, msg.sender, _payer, false);\n//         payee_who = msg.sender;\n//     }\n    \n//     //CAN HAVE A FUNCTION TO GET BILL DETAILS BY PASSING IN ARGUMENT ID!!!!\n\n//     function payBill(uint _id) public payable {\n//         // Fetch the bill\n//         Bill memory _bill = bills[_id];\n//         // Fetch the payee\n//         address payable _payee = _bill.payee;\n        \n//         // Make sure the bill has a valid id -- to prevent scam? \n//         require(_bill.id > 0 && _bill.id <= numberOfTransactions);\n//         // Require that there is enough Ether in the transaction\n//         require(msg.value >= _bill.amount);\n//         // Require that the bill has not been paid already\n//         require(!_bill.alreadyPaid);\n//         //Valid Payee is checked for in the front end\n        \n//         // Require that the buyer is not the seller -- REMOVE?\n//         // require(_payee != msg.sender);\n        \n//         // // Transfer ownership to the buyer\n//         // _bill.payee = msg.sender; -- ownership transfer DOESNT APPLY\n        \n//         // Mark as paid -- to prevent replay\n//         _bill.alreadyPaid = true;\n//         // Update the bill\n//         bills[_id] = _bill;\n//         // Pay the payee by sending them Ether\n//         address(_payee).transfer(_bill.amount);\n//         // Trigger an event\n//         emit BillPaid(numberOfTransactions, _bill.name, _bill.amount, _payee, msg.sender, true);\n//         payer_who = msg.sender; //REMOVE??\n//     }\n    \n//     function activateAccount() public {\n//         if(!payerAccountActive) {\n//             payerAccountActive = true;\n//         }\n//     }\n    \n//     function deactivateAccount() public {\n//         if(payerAccountActive) {\n//             payerAccountActive = false;\n//         }\n//     }\n    \n//     function getAccountStatus() public returns(bool) {\n//         return payerAccountActive;\n//     }\n    \n//     function setUpperLimit(uint _upperLimit) public {\n//         upperLimit = _upperLimit;\n//     }\n    \n//     function getUpperLimit() public returns(uint) {\n//         return upperLimit;\n//     }\n    \n//     function addValidPayee(address payable _validPayee) public {\n//         validPayeesList.push(_validPayee);\n//         numberOfValidPayees++;\n//     }\n    \n//     function getValidPayees() public returns(address[] memory) {\n//         return validPayeesList;\n//     }\n    \n//     //NEGATIVE AMOUNT REQUESTS ARE VALIDATED IN THE FRONT END\n    \n// }\n\n\n\n\n//=================================================================================================================================\n\n\n\n// pragma solidity ^0.5.0;\n\n// contract BillRentalPayment {\n//     string public name;\n    \n//     uint public numberOfTransactions = 0;\n    \n//     address payable public payee_who;\n//     address payable public payer_who;\n    \n//     mapping(uint => Bill) public bills; //need to have it private??\n    \n//     //NEED TO HAVE ANOTHER BOOLEAN TO SEE IF THE PAYER IS STILL USING THIS SERVICE -- AND A FUNCTION WITH IF ELSE TO ABORT OR CONTINUE\n    \n//     //NEED TO ALSO ADD ANOTHER PARAMETER SAY A PASSWORD SORT OF THING THAT ALL PAYEES SHOULD INCLUDE (DISTRIBUTED BY PAYER)\n//     //WHICH THE PAYEE NEEDS TO SPECIFY EVERYTIME HE REQUESTS PAYMENT SO THAT IT CAN BE VERIFIED IF HES AUTHORISED ORRRR \n    \n//     //ORRRRRRRRRRRRRRRRRRRR EACH PAYER WILL HAVE A LIST OF PAYEE ADDRESSES SO EVERYTIME A PAYMENT COMES THROUGH, IT WILL CHECK \n//     //IF THE PAYEE IS AUTHORISED\n\n//     struct Bill {\n//         uint id;\n//         string name;\n//         uint amount;\n//         address payable payee;\n//         address payable payer;\n//         bool alreadyPaid;\n//     }\n    \n//     event BillPaymentRequested(\n//         uint id,\n//         string name,\n//         uint amount,\n//         address payable payee,\n//         address payable payer,\n//         bool alreadyPaid\n//     );\n\n//     event BillPaid(\n//         uint id,\n//         string name,\n//         uint amount,\n//         address payable payee,\n//         address payable payer,\n//         bool alreadyPaid\n//     );\n    \n//     // modifier onlyPayer() {\n//     //     require(msg.sender == payer);  //need to add to constructor payer = msg.sender but that will mean that when payee calls \n//     //     _;                            // also it'll hold, so think about it\n//     // }\n\n//     constructor() public payable {\n//         name = \"Portobillo\";\n//         // payee = msg.sender;\n//     }\n    \n//     //NEED NONCE!!!\n\n//     function requestPayment(string memory _name, uint _amount, address payable _payer) public {\n//         // Require a valid name\n//         require(bytes(_name).length > 0);\n//         // Require a valid bill amount\n//         require(_amount > 0);\n        \n//         // Increment number of transactions so that the ID can be updated accordingly\n//         numberOfTransactions ++;\n        \n//         uint _id = numberOfTransactions;\n//         // Create the bill\n//         bills[_id] = Bill(_id, _name, _amount, msg.sender, _payer, false);\n        \n//         // Trigger an event that bill has been requested by the payee \n//         emit BillPaymentRequested(_id, _name, _amount, msg.sender, _payer, false);\n//         payee_who = msg.sender;\n//     }\n    \n//     //CAN HAVE A FUNCTION TO GET BILL DETAILS BY PASSING IN ARGUMENT ID!!!!\n\n//     function payBill(uint _id) public payable {\n//         // Fetch the bill\n//         Bill memory _bill = bills[_id];\n//         // Fetch the payee\n//         address payable _payee = _bill.payee;\n        \n//         // Make sure the bill has a valid id -- to prevent scam? \n//         require(_bill.id > 0 && _bill.id <= numberOfTransactions);\n//         // Require that there is enough Ether in the transaction\n//         require(msg.value >= _bill.amount);\n//         // Require that the bill has not been paid already\n//         require(!_bill.alreadyPaid);\n        \n//         // Require that the buyer is not the seller -- REMOVE?\n//         // require(_payee != msg.sender);\n        \n//         // // Transfer ownership to the buyer\n//         // _bill.payee = msg.sender; -- ownership transfer DOESNT APPLY\n        \n//         // Mark as paid -- to prevent replay\n//         _bill.alreadyPaid = true;\n//         // Update the bill\n//         bills[_id] = _bill;\n//         // Pay the payee by sending them Ether\n//         address(_payee).transfer(_bill.amount);\n//         // Trigger an event\n//         emit BillPaid(numberOfTransactions, _bill.name, _bill.amount, _payee, msg.sender, true);\n//         payer_who = msg.sender; //REMOVE??\n//     }\n// }\n\n\n\n\n\n\n\n\n",
  "sourcePath": "/Users/sanjayshankar/Documents/GitHub/blockchain-final-project/src/contracts/BillRentalPayment.sol",
  "compiler": {
    "name": "solc",
    "version": "0.5.0+commit.1d4f565a.Emscripten.clang"
  },
  "schemaVersion": "3.0.2",
  "updatedAt": "2020-04-24T10:21:08.312Z",
  "devdoc": {
    "methods": {}
  },
  "userdoc": {
    "methods": {}
  }
}