{
  "contractName": "BillRentalPayment",
  "abi": [
    {
      "constant": true,
      "inputs": [],
      "name": "name",
      "outputs": [
        {
          "name": "",
          "type": "string"
        }
      ],
      "payable": false,
      "stateMutability": "view",
      "type": "function",
      "signature": "0x06fdde03"
    },
    {
      "constant": true,
      "inputs": [],
      "name": "payee_who",
      "outputs": [
        {
          "name": "",
          "type": "address"
        }
      ],
      "payable": false,
      "stateMutability": "view",
      "type": "function",
      "signature": "0x1d1cc760"
    },
    {
      "constant": true,
      "inputs": [
        {
          "name": "",
          "type": "uint256"
        }
      ],
      "name": "bills",
      "outputs": [
        {
          "name": "id",
          "type": "uint256"
        },
        {
          "name": "name",
          "type": "string"
        },
        {
          "name": "amount",
          "type": "uint256"
        },
        {
          "name": "payee",
          "type": "address"
        },
        {
          "name": "payer",
          "type": "address"
        },
        {
          "name": "alreadyPaid",
          "type": "bool"
        }
      ],
      "payable": false,
      "stateMutability": "view",
      "type": "function",
      "signature": "0x28bdcde8"
    },
    {
      "constant": true,
      "inputs": [],
      "name": "payer_who",
      "outputs": [
        {
          "name": "",
          "type": "address"
        }
      ],
      "payable": false,
      "stateMutability": "view",
      "type": "function",
      "signature": "0x8ae49608"
    },
    {
      "constant": true,
      "inputs": [],
      "name": "numberOfTransactions",
      "outputs": [
        {
          "name": "",
          "type": "uint256"
        }
      ],
      "payable": false,
      "stateMutability": "view",
      "type": "function",
      "signature": "0xf8d3afa4"
    },
    {
      "inputs": [],
      "payable": true,
      "stateMutability": "payable",
      "type": "constructor",
      "signature": "constructor"
    },
    {
      "anonymous": false,
      "inputs": [
        {
          "indexed": false,
          "name": "id",
          "type": "uint256"
        },
        {
          "indexed": false,
          "name": "name",
          "type": "string"
        },
        {
          "indexed": false,
          "name": "amount",
          "type": "uint256"
        },
        {
          "indexed": false,
          "name": "payee",
          "type": "address"
        },
        {
          "indexed": false,
          "name": "payer",
          "type": "address"
        },
        {
          "indexed": false,
          "name": "alreadyPaid",
          "type": "bool"
        }
      ],
      "name": "BillPaymentRequested",
      "type": "event",
      "signature": "0x694bf00112848e5e425efbfeca26dbe798788fac8c95f9a7f1b07e4ddd523811"
    },
    {
      "anonymous": false,
      "inputs": [
        {
          "indexed": false,
          "name": "id",
          "type": "uint256"
        },
        {
          "indexed": false,
          "name": "name",
          "type": "string"
        },
        {
          "indexed": false,
          "name": "amount",
          "type": "uint256"
        },
        {
          "indexed": false,
          "name": "payee",
          "type": "address"
        },
        {
          "indexed": false,
          "name": "payer",
          "type": "address"
        },
        {
          "indexed": false,
          "name": "alreadyPaid",
          "type": "bool"
        }
      ],
      "name": "BillPaid",
      "type": "event",
      "signature": "0x4ef5950e321d670c48a770ea38ea0f2ad7d2587599634f90a7da82f3361831ff"
    },
    {
      "constant": false,
      "inputs": [
        {
          "name": "_name",
          "type": "string"
        },
        {
          "name": "_amount",
          "type": "uint256"
        },
        {
          "name": "_payer",
          "type": "address"
        }
      ],
      "name": "requestPayment",
      "outputs": [],
      "payable": false,
      "stateMutability": "nonpayable",
      "type": "function",
      "signature": "0x392183aa"
    },
    {
      "constant": false,
      "inputs": [
        {
          "name": "_id",
          "type": "uint256"
        }
      ],
      "name": "payBill",
      "outputs": [],
      "payable": true,
      "stateMutability": "payable",
      "type": "function",
      "signature": "0xf0975190"
    }
  ],
  "bytecode": "0x608060405260006001556040805190810160405280600a81526020017f506f72746f62696c6c6f000000000000000000000000000000000000000000008152506000908051906020019061005492919061005a565b506100ff565b828054600181600116156101000203166002900490600052602060002090601f016020900481019282601f1061009b57805160ff19168380011785556100c9565b828001600101855582156100c9579182015b828111156100c85782518255916020019190600101906100ad565b5b5090506100d691906100da565b5090565b6100fc91905b808211156100f85760008160009055506001016100e0565b5090565b90565b610f388061010e6000396000f3fe608060405260043610610083576000357c0100000000000000000000000000000000000000000000000000000000900463ffffffff16806306fdde03146100885780631d1cc7601461011857806328bdcde81461016f578063392183aa146102a25780638ae4960814610394578063f0975190146103eb578063f8d3afa414610419575b600080fd5b34801561009457600080fd5b5061009d610444565b6040518080602001828103825283818151815260200191508051906020019080838360005b838110156100dd5780820151818401526020810190506100c2565b50505050905090810190601f16801561010a5780820380516001836020036101000a031916815260200191505b509250505060405180910390f35b34801561012457600080fd5b5061012d6104e2565b604051808273ffffffffffffffffffffffffffffffffffffffff1673ffffffffffffffffffffffffffffffffffffffff16815260200191505060405180910390f35b34801561017b57600080fd5b506101a86004803603602081101561019257600080fd5b8101908080359060200190929190505050610508565b60405180878152602001806020018681526020018573ffffffffffffffffffffffffffffffffffffffff1673ffffffffffffffffffffffffffffffffffffffff1681526020018473ffffffffffffffffffffffffffffffffffffffff1673ffffffffffffffffffffffffffffffffffffffff16815260200183151515158152602001828103825287818151815260200191508051906020019080838360005b83811015610262578082015181840152602081019050610247565b50505050905090810190601f16801561028f5780820380516001836020036101000a031916815260200191505b5097505050505050505060405180910390f35b3480156102ae57600080fd5b50610392600480360360608110156102c557600080fd5b81019080803590602001906401000000008111156102e257600080fd5b8201836020820111156102f457600080fd5b8035906020019184600183028401116401000000008311171561031657600080fd5b91908080601f016020809104026020016040519081016040528093929190818152602001838380828437600081840152601f19601f82011690508083019250505050505050919291929080359060200190929190803573ffffffffffffffffffffffffffffffffffffffff169060200190929190505050610629565b005b3480156103a057600080fd5b506103a961091b565b604051808273ffffffffffffffffffffffffffffffffffffffff1673ffffffffffffffffffffffffffffffffffffffff16815260200191505060405180910390f35b6104176004803603602081101561040157600080fd5b8101908080359060200190929190505050610941565b005b34801561042557600080fd5b5061042e610dfc565b6040518082815260200191505060405180910390f35b60008054600181600116156101000203166002900480601f0160208091040260200160405190810160405280929190818152602001828054600181600116156101000203166002900480156104da5780601f106104af576101008083540402835291602001916104da565b820191906000526020600020905b8154815290600101906020018083116104bd57829003601f168201915b505050505081565b600260009054906101000a900473ffffffffffffffffffffffffffffffffffffffff1681565b6004602052806000526040600020600091509050806000015490806001018054600181600116156101000203166002900480601f0160208091040260200160405190810160405280929190818152602001828054600181600116156101000203166002900480156105ba5780601f1061058f576101008083540402835291602001916105ba565b820191906000526020600020905b81548152906001019060200180831161059d57829003601f168201915b5050505050908060020154908060030160009054906101000a900473ffffffffffffffffffffffffffffffffffffffff16908060040160009054906101000a900473ffffffffffffffffffffffffffffffffffffffff16908060040160149054906101000a900460ff16905086565b6000835111151561063957600080fd5b60008211151561064857600080fd5b6001600081548092919060010191905055506000600154905060c0604051908101604052808281526020018581526020018481526020013373ffffffffffffffffffffffffffffffffffffffff1681526020018373ffffffffffffffffffffffffffffffffffffffff16815260200160001515815250600460008381526020019081526020016000206000820151816000015560208201518160010190805190602001906106f7929190610e02565b506040820151816002015560608201518160030160006101000a81548173ffffffffffffffffffffffffffffffffffffffff021916908373ffffffffffffffffffffffffffffffffffffffff16021790555060808201518160040160006101000a81548173ffffffffffffffffffffffffffffffffffffffff021916908373ffffffffffffffffffffffffffffffffffffffff16021790555060a08201518160040160146101000a81548160ff0219169083151502179055509050507f694bf00112848e5e425efbfeca26dbe798788fac8c95f9a7f1b07e4ddd5238118185853386600060405180878152602001806020018681526020018573ffffffffffffffffffffffffffffffffffffffff1673ffffffffffffffffffffffffffffffffffffffff1681526020018473ffffffffffffffffffffffffffffffffffffffff1673ffffffffffffffffffffffffffffffffffffffff16815260200183151515158152602001828103825287818151815260200191508051906020019080838360005b8381101561089557808201518184015260208101905061087a565b50505050905090810190601f1680156108c25780820380516001836020036101000a031916815260200191505b5097505050505050505060405180910390a133600260006101000a81548173ffffffffffffffffffffffffffffffffffffffff021916908373ffffffffffffffffffffffffffffffffffffffff16021790555050505050565b600360009054906101000a900473ffffffffffffffffffffffffffffffffffffffff1681565b610949610e82565b6004600083815260200190815260200160002060c0604051908101604052908160008201548152602001600182018054600181600116156101000203166002900480601f016020809104026020016040519081016040528092919081815260200182805460018160011615610100020316600290048015610a0b5780601f106109e057610100808354040283529160200191610a0b565b820191906000526020600020905b8154815290600101906020018083116109ee57829003601f168201915b50505050508152602001600282015481526020016003820160009054906101000a900473ffffffffffffffffffffffffffffffffffffffff1673ffffffffffffffffffffffffffffffffffffffff1673ffffffffffffffffffffffffffffffffffffffff1681526020016004820160009054906101000a900473ffffffffffffffffffffffffffffffffffffffff1673ffffffffffffffffffffffffffffffffffffffff1673ffffffffffffffffffffffffffffffffffffffff1681526020016004820160149054906101000a900460ff161515151581525050905060008160600151905060008260000151118015610b0a5750600154826000015111155b1515610b1557600080fd5b81604001513410151515610b2857600080fd5b8160a00151151515610b3957600080fd5b60018260a00190151590811515815250508160046000858152602001908152602001600020600082015181600001556020820151816001019080519060200190610b84929190610e02565b506040820151816002015560608201518160030160006101000a81548173ffffffffffffffffffffffffffffffffffffffff021916908373ffffffffffffffffffffffffffffffffffffffff16021790555060808201518160040160006101000a81548173ffffffffffffffffffffffffffffffffffffffff021916908373ffffffffffffffffffffffffffffffffffffffff16021790555060a08201518160040160146101000a81548160ff0219169083151502179055509050508073ffffffffffffffffffffffffffffffffffffffff166108fc83604001519081150290604051600060405180830381858888f19350505050158015610c8a573d6000803e3d6000fd5b507f4ef5950e321d670c48a770ea38ea0f2ad7d2587599634f90a7da82f3361831ff600154836020015184604001518433600160405180878152602001806020018681526020018573ffffffffffffffffffffffffffffffffffffffff1673ffffffffffffffffffffffffffffffffffffffff1681526020018473ffffffffffffffffffffffffffffffffffffffff1673ffffffffffffffffffffffffffffffffffffffff16815260200183151515158152602001828103825287818151815260200191508051906020019080838360005b83811015610d77578082015181840152602081019050610d5c565b50505050905090810190601f168015610da45780820380516001836020036101000a031916815260200191505b5097505050505050505060405180910390a133600360006101000a81548173ffffffffffffffffffffffffffffffffffffffff021916908373ffffffffffffffffffffffffffffffffffffffff160217905550505050565b60015481565b828054600181600116156101000203166002900490600052602060002090601f016020900481019282601f10610e4357805160ff1916838001178555610e71565b82800160010185558215610e71579182015b82811115610e70578251825591602001919060010190610e55565b5b509050610e7e9190610ee7565b5090565b60c060405190810160405280600081526020016060815260200160008152602001600073ffffffffffffffffffffffffffffffffffffffff168152602001600073ffffffffffffffffffffffffffffffffffffffff1681526020016000151581525090565b610f0991905b80821115610f05576000816000905550600101610eed565b5090565b9056fea165627a7a7230582030118141e687f9db1062d793c9112bafad19d16be4b73faa9f22c761bc5035fa0029",
  "source": "pragma solidity ^0.5.0;\n\ncontract BillRentalPayment {\n    string public name;\n    \n    uint public numberOfTransactions = 0;\n    \n    address payable public payee_who;\n    address payable public payer_who;\n    \n    mapping(uint => Bill) public bills; //need to have it private??\n    \n    //NEED TO HAVE ANOTHER BOOLEAN TO SEE IF THE PAYER IS STILL USING THIS SERVICE -- AND A FUNCTION WITH IF ELSE TO ABORT OR CONTINUE\n    \n    //NEED TO ALSO ADD ANOTHER PARAMETER SAY A PASSWORD SORT OF THING THAT ALL PAYEES SHOULD INCLUDE (DISTRIBUTED BY PAYER)\n    //WHICH THE PAYEE NEEDS TO SPECIFY EVERYTIME HE REQUESTS PAYMENT SO THAT IT CAN BE VERIFIED IF HES AUTHORISED ORRRR \n    \n    //ORRRRRRRRRRRRRRRRRRRR EACH PAYER WILL HAVE A LIST OF PAYEE ADDRESSES SO EVERYTIME A PAYMENT COMES THROUGH, IT WILL CHECK \n    //IF THE PAYEE IS AUTHORISED\n\n    struct Bill {\n        uint id;\n        string name;\n        uint amount;\n        address payable payee;\n        address payable payer;\n        bool alreadyPaid;\n    }\n    \n    event BillPaymentRequested(\n        uint id,\n        string name,\n        uint amount,\n        address payable payee,\n        address payable payer,\n        bool alreadyPaid\n    );\n\n    event BillPaid(\n        uint id,\n        string name,\n        uint amount,\n        address payable payee,\n        address payable payer,\n        bool alreadyPaid\n    );\n    \n    // modifier onlyPayer() {\n    //     require(msg.sender == payer);  //need to add to constructor payer = msg.sender but that will mean that when payee calls \n    //     _;                            // also it'll hold, so think about it\n    // }\n\n    constructor() public payable {\n        name = \"Portobillo\";\n        // payee = msg.sender;\n    }\n    \n    //NEED NONCE!!!\n\n    function requestPayment(string memory _name, uint _amount, address payable _payer) public {\n        // Require a valid name\n        require(bytes(_name).length > 0);\n        // Require a valid bill amount\n        require(_amount > 0);\n        \n        // Increment number of transactions so that the ID can be updated accordingly\n        numberOfTransactions ++;\n        \n        uint _id = numberOfTransactions;\n        // Create the bill\n        bills[_id] = Bill(_id, _name, _amount, msg.sender, _payer, false);\n        \n        // Trigger an event that bill has been requested by the payee \n        emit BillPaymentRequested(_id, _name, _amount, msg.sender, _payer, false);\n        payee_who = msg.sender;\n    }\n    \n    //CAN HAVE A FUNCTION TO GET BILL DETAILS BY PASSING IN ARGUMENT ID!!!!\n\n    function payBill(uint _id) public payable {\n        // Fetch the bill\n        Bill memory _bill = bills[_id];\n        // Fetch the payee\n        address payable _payee = _bill.payee;\n        \n        // Make sure the bill has a valid id -- to prevent scam? \n        require(_bill.id > 0 && _bill.id <= numberOfTransactions);\n        // Require that there is enough Ether in the transaction\n        require(msg.value >= _bill.amount);\n        // Require that the bill has not been paid already\n        require(!_bill.alreadyPaid);\n        \n        // Require that the buyer is not the seller -- REMOVE?\n        // require(_payee != msg.sender);\n        \n        // // Transfer ownership to the buyer\n        // _bill.payee = msg.sender; -- ownership transfer DOESNT APPLY\n        \n        // Mark as paid -- to prevent replay\n        _bill.alreadyPaid = true;\n        // Update the bill\n        bills[_id] = _bill;\n        // Pay the payee by sending them Ether\n        address(_payee).transfer(_bill.amount);\n        // Trigger an event\n        emit BillPaid(numberOfTransactions, _bill.name, _bill.amount, _payee, msg.sender, true);\n        payer_who = msg.sender; //REMOVE??\n    }\n}\n\n\n\n\n\n\n//=================================================================================================================================\n\n\n\n\n// pragma solidity ^0.5.0;\n\n// contract BillRentalPayment {\n//     string public name;\n    \n//     uint public numberOfTransactions = 0;\n    \n//     address payable public payee_who;\n//     address payable public payer_who;\n    \n//     mapping(uint => Bill) public bills; //need to have it private??\n    \n//     //NEED TO HAVE ANOTHER BOOLEAN TO SEE IF THE PAYER IS STILL USING THIS SERVICE -- AND A FUNCTION WITH IF ELSE TO ABORT OR CONTINUE\n\n//     struct Bill {\n//         uint id;\n//         string name;\n//         uint amount;\n//         address payable payee;\n//         address payable payer;\n//         bool alreadyPaid;\n//     }\n    \n//     event BillPaymentRequested(\n//         uint id,\n//         string name,\n//         uint amount,\n//         address payable payee,\n//         address payable payer,\n//         bool alreadyPaid\n//     );\n\n    // event BillPaid(\n    //     uint id,\n    //     string name,\n    //     uint amount,\n    //     address payable payee,\n    //     address payable payer,\n    //     bool alreadyPaid\n    // );\n    \n    // // modifier onlyPayer() {\n    // //     require(msg.sender == payer);  //need to add to constructor payer = msg.sender but that will mean that when payee calls \n    // //     _;                            // also it'll hold, so think about it\n    // // }\n\n    // constructor() public payable {\n    //     name = \"Portobillo\";\n    //     // payee = msg.sender;\n    // }\n    \n    // //NEED NONCE!!!\n\n    // function requestPayment(string memory _name, uint _amount, address payable _payer) public {\n    //     // Require a valid name\n    //     require(bytes(_name).length > 0);\n    //     // Require a valid bill amount\n    //     require(_amount > 0);\n        \n    //     // Increment number of transactions so that the ID can be updated accordingly\n    //     numberOfTransactions ++;\n        \n    //     uint _id = numberOfTransactions;\n    //     // Create the bill\n    //     bills[_id] = Bill(_id, _name, _amount, msg.sender, _payer, false);\n        \n    //     // Trigger an event that bill has been requested by the payee \n    //     emit BillPaymentRequested(_id, _name, _amount, msg.sender, _payer, false);\n    //     payee_who = msg.sender;\n    // }\n\n\n\n\n    //=================================================================================================================================\n\n\n\n\n\n    // function payBill(uint _id) public payable {\n    //     // Fetch the bill\n    //     Bill memory _bill = bills[_id];\n    //     // Fetch the payee\n    //     address payable _payee = _bill.payee;\n        \n    //     // Make sure the bill has a valid id -- to prevent scam? \n    //     require(_bill.id > 0 && _bill.id <= numberOfTransactions);\n    //     // Require that there is enough Ether in the transaction\n    //     require(msg.value >= _bill.amount);\n    //     // Require that the bill has not been paid already\n    //     require(!_bill.alreadyPaid);\n        \n    //     // Require that the buyer is not the seller -- REMOVE?\n    //     // require(_payee != msg.sender);\n        \n    //     // // Transfer ownership to the buyer\n    //     // _bill.payee = msg.sender; -- ownership transfer DOESNT APPLY\n        \n    //     // Mark as paid -- to prevent replay\n    //     _bill.alreadyPaid = true;\n    //     // Update the bill\n    //     bills[_id] = _bill;\n    //     // Pay the payee by sending them Ether\n    //     address(_payee).transfer(_bill.amount);\n    //     // Trigger an event\n    //     emit BillPaid(numberOfTransactions, _bill.name, _bill.amount, _payee, msg.sender, true);\n    //     payer_who = msg.sender; //REMOVE??\n    // }\n// }\n\n//\"testname1\", 2,\"0x7d3965E166D39DF0168C82B9A95ADeA1C6FAA8fD\" DONT FORGET TO CHANGE THE VALUE BEFORE CLICKING PAYBILL\n\n\n\n// pragma solidity ^0.5.0;\n\n// contract BillRentalPayment {\n//     string public name;\n\n//     constructor() public {\n//         name = \"Portobillo\";\n//     }\n// }",
  "sourcePath": "/Users/sanjayshankar/Documents/GitHub/blockchain-final-project/src/contracts/BillRentalPayment.sol",
  "compiler": {
    "name": "solc",
    "version": "0.5.0+commit.1d4f565a.Emscripten.clang"
  },
  "schemaVersion": "3.0.2",
  "updatedAt": "2020-04-21T11:27:45.197Z",
  "devdoc": {
    "methods": {}
  },
  "userdoc": {
    "methods": {}
  }
}