{
  "contractName": "BillRentalPayment",
  "abi": [
    {
      "constant": true,
      "inputs": [],
      "name": "name",
      "outputs": [
        {
          "name": "",
          "type": "string"
        }
      ],
      "payable": false,
      "stateMutability": "view",
      "type": "function",
      "signature": "0x06fdde03"
    },
    {
      "constant": true,
      "inputs": [],
      "name": "payer",
      "outputs": [
        {
          "name": "",
          "type": "address"
        }
      ],
      "payable": false,
      "stateMutability": "view",
      "type": "function",
      "signature": "0x123119cd"
    },
    {
      "constant": true,
      "inputs": [],
      "name": "payee_who",
      "outputs": [
        {
          "name": "",
          "type": "address"
        }
      ],
      "payable": false,
      "stateMutability": "view",
      "type": "function",
      "signature": "0x1d1cc760"
    },
    {
      "constant": true,
      "inputs": [
        {
          "name": "",
          "type": "address"
        },
        {
          "name": "",
          "type": "uint256"
        }
      ],
      "name": "validPayeesList",
      "outputs": [
        {
          "name": "payee",
          "type": "address"
        }
      ],
      "payable": false,
      "stateMutability": "view",
      "type": "function",
      "signature": "0x1de9d21d"
    },
    {
      "constant": true,
      "inputs": [
        {
          "name": "",
          "type": "uint256"
        }
      ],
      "name": "bills",
      "outputs": [
        {
          "name": "id",
          "type": "uint256"
        },
        {
          "name": "name",
          "type": "string"
        },
        {
          "name": "amount",
          "type": "uint256"
        },
        {
          "name": "payee",
          "type": "address"
        },
        {
          "name": "payer",
          "type": "address"
        },
        {
          "name": "alreadyPaid",
          "type": "bool"
        }
      ],
      "payable": false,
      "stateMutability": "view",
      "type": "function",
      "signature": "0x28bdcde8"
    },
    {
      "constant": true,
      "inputs": [
        {
          "name": "",
          "type": "address"
        }
      ],
      "name": "accountActive",
      "outputs": [
        {
          "name": "",
          "type": "bool"
        }
      ],
      "payable": false,
      "stateMutability": "view",
      "type": "function",
      "signature": "0x523484a1"
    },
    {
      "constant": true,
      "inputs": [
        {
          "name": "",
          "type": "address"
        }
      ],
      "name": "upperLimit",
      "outputs": [
        {
          "name": "",
          "type": "uint256"
        }
      ],
      "payable": false,
      "stateMutability": "view",
      "type": "function",
      "signature": "0x686c5cd7"
    },
    {
      "constant": true,
      "inputs": [],
      "name": "payer_who",
      "outputs": [
        {
          "name": "",
          "type": "address"
        }
      ],
      "payable": false,
      "stateMutability": "view",
      "type": "function",
      "signature": "0x8ae49608"
    },
    {
      "constant": true,
      "inputs": [
        {
          "name": "",
          "type": "uint256"
        }
      ],
      "name": "validListOfPayees",
      "outputs": [
        {
          "name": "payee",
          "type": "address"
        }
      ],
      "payable": false,
      "stateMutability": "view",
      "type": "function",
      "signature": "0x995c5fa1"
    },
    {
      "constant": true,
      "inputs": [],
      "name": "portobilloIsActive",
      "outputs": [
        {
          "name": "",
          "type": "bool"
        }
      ],
      "payable": false,
      "stateMutability": "view",
      "type": "function",
      "signature": "0xb6861cfc"
    },
    {
      "constant": true,
      "inputs": [
        {
          "name": "",
          "type": "address"
        }
      ],
      "name": "numberOfValidPayees",
      "outputs": [
        {
          "name": "",
          "type": "uint256"
        }
      ],
      "payable": false,
      "stateMutability": "view",
      "type": "function",
      "signature": "0xd4b9a714"
    },
    {
      "constant": true,
      "inputs": [],
      "name": "numberOfTransactions",
      "outputs": [
        {
          "name": "",
          "type": "uint256"
        }
      ],
      "payable": false,
      "stateMutability": "view",
      "type": "function",
      "signature": "0xf8d3afa4"
    },
    {
      "inputs": [],
      "payable": true,
      "stateMutability": "payable",
      "type": "constructor",
      "signature": "constructor"
    },
    {
      "anonymous": false,
      "inputs": [
        {
          "indexed": false,
          "name": "id",
          "type": "uint256"
        },
        {
          "indexed": false,
          "name": "name",
          "type": "string"
        },
        {
          "indexed": false,
          "name": "amount",
          "type": "uint256"
        },
        {
          "indexed": false,
          "name": "payee",
          "type": "address"
        },
        {
          "indexed": false,
          "name": "payer",
          "type": "address"
        },
        {
          "indexed": false,
          "name": "alreadyPaid",
          "type": "bool"
        }
      ],
      "name": "BillPaymentRequested",
      "type": "event",
      "signature": "0x694bf00112848e5e425efbfeca26dbe798788fac8c95f9a7f1b07e4ddd523811"
    },
    {
      "anonymous": false,
      "inputs": [
        {
          "indexed": false,
          "name": "id",
          "type": "uint256"
        },
        {
          "indexed": false,
          "name": "name",
          "type": "string"
        },
        {
          "indexed": false,
          "name": "amount",
          "type": "uint256"
        },
        {
          "indexed": false,
          "name": "payee",
          "type": "address"
        },
        {
          "indexed": false,
          "name": "payer",
          "type": "address"
        },
        {
          "indexed": false,
          "name": "alreadyPaid",
          "type": "bool"
        }
      ],
      "name": "BillPaid",
      "type": "event",
      "signature": "0x4ef5950e321d670c48a770ea38ea0f2ad7d2587599634f90a7da82f3361831ff"
    },
    {
      "anonymous": false,
      "inputs": [
        {
          "indexed": false,
          "name": "payee",
          "type": "address"
        },
        {
          "indexed": false,
          "name": "payer",
          "type": "address"
        }
      ],
      "name": "ValidPayeeAdded",
      "type": "event",
      "signature": "0xaa182860efb909778d41602fa5ec6af34368606ea674706f16b7e8ddab3bc451"
    },
    {
      "anonymous": false,
      "inputs": [
        {
          "indexed": false,
          "name": "upperLimit",
          "type": "uint256"
        },
        {
          "indexed": false,
          "name": "payer",
          "type": "address"
        }
      ],
      "name": "UpperLimitModified",
      "type": "event",
      "signature": "0xd0139d2881b719ee70c6f473acb2dfc29158e1789e2d33d6e4544ef307597240"
    },
    {
      "constant": false,
      "inputs": [
        {
          "name": "_name",
          "type": "string"
        },
        {
          "name": "_amount",
          "type": "uint256"
        },
        {
          "name": "_payer",
          "type": "address"
        }
      ],
      "name": "requestPayment",
      "outputs": [],
      "payable": false,
      "stateMutability": "nonpayable",
      "type": "function",
      "signature": "0x392183aa"
    },
    {
      "constant": false,
      "inputs": [
        {
          "name": "_id",
          "type": "uint256"
        }
      ],
      "name": "payBill",
      "outputs": [],
      "payable": true,
      "stateMutability": "payable",
      "type": "function",
      "signature": "0xf0975190"
    },
    {
      "constant": false,
      "inputs": [
        {
          "name": "_addr",
          "type": "address"
        }
      ],
      "name": "activateAccount",
      "outputs": [],
      "payable": false,
      "stateMutability": "nonpayable",
      "type": "function",
      "signature": "0x82a62137"
    },
    {
      "constant": false,
      "inputs": [
        {
          "name": "_addr",
          "type": "address"
        }
      ],
      "name": "deactivateAccount",
      "outputs": [],
      "payable": false,
      "stateMutability": "nonpayable",
      "type": "function",
      "signature": "0x130cb5f0"
    },
    {
      "constant": false,
      "inputs": [
        {
          "name": "_addr",
          "type": "address"
        }
      ],
      "name": "getAccountStatus",
      "outputs": [
        {
          "name": "",
          "type": "bool"
        }
      ],
      "payable": false,
      "stateMutability": "nonpayable",
      "type": "function",
      "signature": "0xfd4fa05a"
    },
    {
      "constant": false,
      "inputs": [
        {
          "name": "_upperLimit",
          "type": "uint256"
        },
        {
          "name": "payer",
          "type": "address"
        }
      ],
      "name": "setUpperLimit",
      "outputs": [],
      "payable": false,
      "stateMutability": "nonpayable",
      "type": "function",
      "signature": "0xab767dbb"
    },
    {
      "constant": false,
      "inputs": [],
      "name": "getUpperLimit",
      "outputs": [
        {
          "name": "",
          "type": "uint256"
        }
      ],
      "payable": false,
      "stateMutability": "nonpayable",
      "type": "function",
      "signature": "0x1f5f528d"
    },
    {
      "constant": false,
      "inputs": [
        {
          "name": "_validPayee",
          "type": "address"
        },
        {
          "name": "payer",
          "type": "address"
        }
      ],
      "name": "addValidPayee",
      "outputs": [],
      "payable": false,
      "stateMutability": "nonpayable",
      "type": "function",
      "signature": "0xb092b613"
    }
  ],
  "bytecode": "0x608060405260006001556001600260006101000a81548160ff0219169083151502179055506040805190810160405280600a81526020017f506f72746f62696c6c6f00000000000000000000000000000000000000000000815250600090805190602001906200007192919062000078565b5062000127565b828054600181600116156101000203166002900490600052602060002090601f016020900481019282601f10620000bb57805160ff1916838001178555620000ec565b82800160010185558215620000ec579182015b82811115620000eb578251825591602001919060010190620000ce565b5b509050620000fb9190620000ff565b5090565b6200012491905b808211156200012057600081600090555060010162000106565b5090565b90565b611b6580620001376000396000f3fe608060405260043610610112576000357c0100000000000000000000000000000000000000000000000000000000900463ffffffff16806306fdde0314610117578063123119cd146101a7578063130cb5f0146101fe5780631d1cc7601461024f5780631de9d21d146102a65780631f5f528d1461034157806328bdcde81461036c578063392183aa1461049f578063523484a114610591578063686c5cd7146105fa57806382a621371461065f5780638ae49608146106b0578063995c5fa114610707578063ab767dbb14610782578063b092b613146107dd578063b6861cfc1461084e578063d4b9a7141461087d578063f0975190146108e2578063f8d3afa414610910578063fd4fa05a1461093b575b600080fd5b34801561012357600080fd5b5061012c6109a4565b6040518080602001828103825283818151815260200191508051906020019080838360005b8381101561016c578082015181840152602081019050610151565b50505050905090810190601f1680156101995780820380516001836020036101000a031916815260200191505b509250505060405180910390f35b3480156101b357600080fd5b506101bc610a42565b604051808273ffffffffffffffffffffffffffffffffffffffff1673ffffffffffffffffffffffffffffffffffffffff16815260200191505060405180910390f35b34801561020a57600080fd5b5061024d6004803603602081101561022157600080fd5b81019080803573ffffffffffffffffffffffffffffffffffffffff169060200190929190505050610a68565b005b34801561025b57600080fd5b50610264610b16565b604051808273ffffffffffffffffffffffffffffffffffffffff1673ffffffffffffffffffffffffffffffffffffffff16815260200191505060405180910390f35b3480156102b257600080fd5b506102ff600480360360408110156102c957600080fd5b81019080803573ffffffffffffffffffffffffffffffffffffffff16906020019092919080359060200190929190505050610b3c565b604051808273ffffffffffffffffffffffffffffffffffffffff1673ffffffffffffffffffffffffffffffffffffffff16815260200191505060405180910390f35b34801561034d57600080fd5b50610356610b92565b6040518082815260200191505060405180910390f35b34801561037857600080fd5b506103a56004803603602081101561038f57600080fd5b8101908080359060200190929190505050610c00565b60405180878152602001806020018681526020018573ffffffffffffffffffffffffffffffffffffffff1673ffffffffffffffffffffffffffffffffffffffff1681526020018473ffffffffffffffffffffffffffffffffffffffff1673ffffffffffffffffffffffffffffffffffffffff16815260200183151515158152602001828103825287818151815260200191508051906020019080838360005b8381101561045f578082015181840152602081019050610444565b50505050905090810190601f16801561048c5780820380516001836020036101000a031916815260200191505b5097505050505050505060405180910390f35b3480156104ab57600080fd5b5061058f600480360360608110156104c257600080fd5b81019080803590602001906401000000008111156104df57600080fd5b8201836020820111156104f157600080fd5b8035906020019184600183028401116401000000008311171561051357600080fd5b91908080601f016020809104026020016040519081016040528093929190818152602001838380828437600081840152601f19601f82011690508083019250505050505050919291929080359060200190929190803573ffffffffffffffffffffffffffffffffffffffff169060200190929190505050610d21565b005b34801561059d57600080fd5b506105e0600480360360208110156105b457600080fd5b81019080803573ffffffffffffffffffffffffffffffffffffffff169060200190929190505050611013565b604051808215151515815260200191505060405180910390f35b34801561060657600080fd5b506106496004803603602081101561061d57600080fd5b81019080803573ffffffffffffffffffffffffffffffffffffffff169060200190929190505050611033565b6040518082815260200191505060405180910390f35b34801561066b57600080fd5b506106ae6004803603602081101561068257600080fd5b81019080803573ffffffffffffffffffffffffffffffffffffffff16906020019092919050505061104b565b005b3480156106bc57600080fd5b506106c56110fa565b604051808273ffffffffffffffffffffffffffffffffffffffff1673ffffffffffffffffffffffffffffffffffffffff16815260200191505060405180910390f35b34801561071357600080fd5b506107406004803603602081101561072a57600080fd5b8101908080359060200190929190505050611120565b604051808273ffffffffffffffffffffffffffffffffffffffff1673ffffffffffffffffffffffffffffffffffffffff16815260200191505060405180910390f35b34801561078e57600080fd5b506107db600480360360408110156107a557600080fd5b8101908080359060200190929190803573ffffffffffffffffffffffffffffffffffffffff169060200190929190505050611169565b005b3480156107e957600080fd5b5061084c6004803603604081101561080057600080fd5b81019080803573ffffffffffffffffffffffffffffffffffffffff169060200190929190803573ffffffffffffffffffffffffffffffffffffffff16906020019092919050505061121c565b005b34801561085a57600080fd5b506108636113ee565b604051808215151515815260200191505060405180910390f35b34801561088957600080fd5b506108cc600480360360208110156108a057600080fd5b81019080803573ffffffffffffffffffffffffffffffffffffffff169060200190929190505050611401565b6040518082815260200191505060405180910390f35b61090e600480360360208110156108f857600080fd5b8101908080359060200190929190505050611419565b005b34801561091c57600080fd5b506109256118d4565b6040518082815260200191505060405180910390f35b34801561094757600080fd5b5061098a6004803603602081101561095e57600080fd5b81019080803573ffffffffffffffffffffffffffffffffffffffff1690602001909291905050506118da565b604051808215151515815260200191505060405180910390f35b60008054600181600116156101000203166002900480601f016020809104026020016040519081016040528092919081815260200182805460018160011615610100020316600290048015610a3a5780601f10610a0f57610100808354040283529160200191610a3a565b820191906000526020600020905b815481529060010190602001808311610a1d57829003601f168201915b505050505081565b600460009054906101000a900473ffffffffffffffffffffffffffffffffffffffff1681565b600a60008273ffffffffffffffffffffffffffffffffffffffff1673ffffffffffffffffffffffffffffffffffffffff16815260200190815260200160002060009054906101000a900460ff1615610b13576000600a60008373ffffffffffffffffffffffffffffffffffffffff1673ffffffffffffffffffffffffffffffffffffffff16815260200190815260200160002060006101000a81548160ff0219169083151502179055505b50565b600260019054906101000a900473ffffffffffffffffffffffffffffffffffffffff1681565b600960205281600052604060002081815481101515610b5757fe5b90600052602060002001600091509150508060000160009054906101000a900473ffffffffffffffffffffffffffffffffffffffff16905081565b60008060076000600460009054906101000a900473ffffffffffffffffffffffffffffffffffffffff1673ffffffffffffffffffffffffffffffffffffffff1673ffffffffffffffffffffffffffffffffffffffff1681526020019081526020016000205490508091505090565b6006602052806000526040600020600091509050806000015490806001018054600181600116156101000203166002900480601f016020809104026020016040519081016040528092919081815260200182805460018160011615610100020316600290048015610cb25780601f10610c8757610100808354040283529160200191610cb2565b820191906000526020600020905b815481529060010190602001808311610c9557829003601f168201915b5050505050908060020154908060030160009054906101000a900473ffffffffffffffffffffffffffffffffffffffff16908060040160009054906101000a900473ffffffffffffffffffffffffffffffffffffffff16908060040160149054906101000a900460ff16905086565b60008351111515610d3157600080fd5b600082111515610d4057600080fd5b6001600081548092919060010191905055506000600154905060c0604051908101604052808281526020018581526020018481526020013373ffffffffffffffffffffffffffffffffffffffff1681526020018373ffffffffffffffffffffffffffffffffffffffff1681526020016000151581525060066000838152602001908152602001600020600082015181600001556020820151816001019080519060200190610def929190611930565b506040820151816002015560608201518160030160006101000a81548173ffffffffffffffffffffffffffffffffffffffff021916908373ffffffffffffffffffffffffffffffffffffffff16021790555060808201518160040160006101000a81548173ffffffffffffffffffffffffffffffffffffffff021916908373ffffffffffffffffffffffffffffffffffffffff16021790555060a08201518160040160146101000a81548160ff0219169083151502179055509050507f694bf00112848e5e425efbfeca26dbe798788fac8c95f9a7f1b07e4ddd5238118185853386600060405180878152602001806020018681526020018573ffffffffffffffffffffffffffffffffffffffff1673ffffffffffffffffffffffffffffffffffffffff1681526020018473ffffffffffffffffffffffffffffffffffffffff1673ffffffffffffffffffffffffffffffffffffffff16815260200183151515158152602001828103825287818151815260200191508051906020019080838360005b83811015610f8d578082015181840152602081019050610f72565b50505050905090810190601f168015610fba5780820380516001836020036101000a031916815260200191505b5097505050505050505060405180910390a133600260016101000a81548173ffffffffffffffffffffffffffffffffffffffff021916908373ffffffffffffffffffffffffffffffffffffffff16021790555050505050565b600a6020528060005260406000206000915054906101000a900460ff1681565b60076020528060005260406000206000915090505481565b600a60008273ffffffffffffffffffffffffffffffffffffffff1673ffffffffffffffffffffffffffffffffffffffff16815260200190815260200160002060009054906101000a900460ff1615156110f7576001600a60008373ffffffffffffffffffffffffffffffffffffffff1673ffffffffffffffffffffffffffffffffffffffff16815260200190815260200160002060006101000a81548160ff0219169083151502179055505b50565b600360009054906101000a900473ffffffffffffffffffffffffffffffffffffffff1681565b60088181548110151561112f57fe5b906000526020600020016000915090508060000160009054906101000a900473ffffffffffffffffffffffffffffffffffffffff16905081565b81600760008373ffffffffffffffffffffffffffffffffffffffff1673ffffffffffffffffffffffffffffffffffffffff168152602001908152602001600020819055507fd0139d2881b719ee70c6f473acb2dfc29158e1789e2d33d6e4544ef3075972408233604051808381526020018273ffffffffffffffffffffffffffffffffffffffff1673ffffffffffffffffffffffffffffffffffffffff1681526020019250505060405180910390a15050565b6001600560008373ffffffffffffffffffffffffffffffffffffffff1673ffffffffffffffffffffffffffffffffffffffff1681526020019081526020016000206000828254019250508190555060086020604051908101604052808473ffffffffffffffffffffffffffffffffffffffff1681525090806001815401808255809150509060018203906000526020600020016000909192909190915060008201518160000160006101000a81548173ffffffffffffffffffffffffffffffffffffffff021916908373ffffffffffffffffffffffffffffffffffffffff1602179055505050506008600960008373ffffffffffffffffffffffffffffffffffffffff1673ffffffffffffffffffffffffffffffffffffffff1681526020019081526020016000209080546113529291906119b0565b507faa182860efb909778d41602fa5ec6af34368606ea674706f16b7e8ddab3bc4518233604051808373ffffffffffffffffffffffffffffffffffffffff1673ffffffffffffffffffffffffffffffffffffffff1681526020018273ffffffffffffffffffffffffffffffffffffffff1673ffffffffffffffffffffffffffffffffffffffff1681526020019250505060405180910390a15050565b600260009054906101000a900460ff1681565b60056020528060005260406000206000915090505481565b611421611a69565b6006600083815260200190815260200160002060c0604051908101604052908160008201548152602001600182018054600181600116156101000203166002900480601f0160208091040260200160405190810160405280929190818152602001828054600181600116156101000203166002900480156114e35780601f106114b8576101008083540402835291602001916114e3565b820191906000526020600020905b8154815290600101906020018083116114c657829003601f168201915b50505050508152602001600282015481526020016003820160009054906101000a900473ffffffffffffffffffffffffffffffffffffffff1673ffffffffffffffffffffffffffffffffffffffff1673ffffffffffffffffffffffffffffffffffffffff1681526020016004820160009054906101000a900473ffffffffffffffffffffffffffffffffffffffff1673ffffffffffffffffffffffffffffffffffffffff1673ffffffffffffffffffffffffffffffffffffffff1681526020016004820160149054906101000a900460ff1615151515815250509050600081606001519050600082600001511180156115e25750600154826000015111155b15156115ed57600080fd5b8160400151341015151561160057600080fd5b8160a0015115151561161157600080fd5b60018260a0019015159081151581525050816006600085815260200190815260200160002060008201518160000155602082015181600101908051906020019061165c929190611930565b506040820151816002015560608201518160030160006101000a81548173ffffffffffffffffffffffffffffffffffffffff021916908373ffffffffffffffffffffffffffffffffffffffff16021790555060808201518160040160006101000a81548173ffffffffffffffffffffffffffffffffffffffff021916908373ffffffffffffffffffffffffffffffffffffffff16021790555060a08201518160040160146101000a81548160ff0219169083151502179055509050508073ffffffffffffffffffffffffffffffffffffffff166108fc83604001519081150290604051600060405180830381858888f19350505050158015611762573d6000803e3d6000fd5b507f4ef5950e321d670c48a770ea38ea0f2ad7d2587599634f90a7da82f3361831ff600154836020015184604001518433600160405180878152602001806020018681526020018573ffffffffffffffffffffffffffffffffffffffff1673ffffffffffffffffffffffffffffffffffffffff1681526020018473ffffffffffffffffffffffffffffffffffffffff1673ffffffffffffffffffffffffffffffffffffffff16815260200183151515158152602001828103825287818151815260200191508051906020019080838360005b8381101561184f578082015181840152602081019050611834565b50505050905090810190601f16801561187c5780820380516001836020036101000a031916815260200191505b5097505050505050505060405180910390a133600360006101000a81548173ffffffffffffffffffffffffffffffffffffffff021916908373ffffffffffffffffffffffffffffffffffffffff160217905550505050565b60015481565b6000600a60008373ffffffffffffffffffffffffffffffffffffffff1673ffffffffffffffffffffffffffffffffffffffff16815260200190815260200160002060009054906101000a900460ff169050919050565b828054600181600116156101000203166002900490600052602060002090601f016020900481019282601f1061197157805160ff191683800117855561199f565b8280016001018555821561199f579182015b8281111561199e578251825591602001919060010190611983565b5b5090506119ac9190611ace565b5090565b828054828255906000526020600020908101928215611a585760005260206000209182015b82811115611a575782826000820160009054906101000a900473ffffffffffffffffffffffffffffffffffffffff168160000160006101000a81548173ffffffffffffffffffffffffffffffffffffffff021916908373ffffffffffffffffffffffffffffffffffffffff1602179055505050916001019190600101906119d5565b5b509050611a659190611af3565b5090565b60c060405190810160405280600081526020016060815260200160008152602001600073ffffffffffffffffffffffffffffffffffffffff168152602001600073ffffffffffffffffffffffffffffffffffffffff1681526020016000151581525090565b611af091905b80821115611aec576000816000905550600101611ad4565b5090565b90565b611b3691905b80821115611b3257600080820160006101000a81549073ffffffffffffffffffffffffffffffffffffffff021916905550600101611af9565b5090565b9056fea165627a7a72305820f8d5a452ce241e4409a8b86fc8cb5445ce0756d0d34e487c6ccfe0caad59aada0029",
  "source": "pragma solidity ^0.5.0;\n\ncontract BillRentalPayment {\n\n    // =========================================\n    //    Initialising variables:\n    // =========================================\n    string public name;\n    uint public numberOfTransactions = 0;\n    bool public portobilloIsActive = true; \n    \n    address payable public payee_who;\n    address payable public payer_who;\n    address public payer;\n\n    // =========================================\n    //    Mappings and relevant:\n    // =========================================\n\n    //mapping to see the number of valid payees for a given address\n    mapping(address => uint) public numberOfValidPayees;\n    \n    //mapping to see the bills\n    mapping(uint => Bill) public bills; \n    \n    //mapping to see the upper limit for a given address\n    mapping(address => uint) public upperLimit;\n    \n    //mapping to see the validPayeesList for a given address\n    ValidPayee[] public validListOfPayees;\n    mapping(address => ValidPayee[]) public validPayeesList;\n\n    //mapping for to see if a given user account is deactivated\n    mapping(address => bool) public accountActive;\n\n    // =========================================\n    //    New Struct types created:\n    // =========================================\n\n    struct Bill {\n        uint id;\n        string name;\n        uint amount;\n        address payable payee;\n        address payable payer;\n        bool alreadyPaid;\n    }\n    \n    struct ValidPayee {\n        address payable payee;\n        //bool alreadyRequestedOnceThisMonth -- decided to remove this (as explained in video)\n    }\n\n    // =========================================\n    //    Events:\n    // =========================================\n\n    event BillPaymentRequested(\n        uint id,\n        string name,\n        uint amount,\n        address payable payee,\n        address payable payer,\n        bool alreadyPaid\n    );\n\n    event BillPaid(\n        uint id,\n        string name,\n        uint amount,\n        address payable payee,\n        address payable payer,\n        bool alreadyPaid\n    );\n\n    event ValidPayeeAdded(\n        address payable payee,\n        address payable payer\n    );\n\n    event UpperLimitModified(\n        uint upperLimit,\n        address payable payer\n    );\n\n    // =========================================\n    //    Constructor:\n    // =========================================\n\n    constructor() public payable {\n        name = \"Portobillo\";\n        // payee = msg.sender;\n    }\n\n    // ==================================================================================\n    //    Function that is called when payee requests payment from payer.\n    //    The params required are transaction description (_name), amount\n    //    and the payer address (_payer)\n    // ==================================================================================\n\n    function requestPayment(string memory _name, uint _amount, address payable _payer) public {\n        // Require a valid name\n        require(bytes(_name).length > 0);\n        // Require a valid bill amount that is non-negative and non-zero\n        require(_amount > 0);\n        \n        // Increment number of transactions so that the ID can be updated accordingly\n        numberOfTransactions ++;\n        uint _id = numberOfTransactions;\n\n        // Create the bill\n        bills[_id] = Bill(_id, _name, _amount, msg.sender, _payer, false);\n        \n        // Trigger an event that bill has been requested by the payee \n        emit BillPaymentRequested(_id, _name, _amount, msg.sender, _payer, false);\n        payee_who = msg.sender;\n    }\n\n    // ==================================================================================\n    //    Function that is called when payer clicks on \"Pay\" button in portal.\n    //    The params required in this function are the bill ID, payee address \n    //    (_payee)\n    // ==================================================================================\n\n    function payBill(uint _id) public payable {\n        // Fetch the bill\n        Bill memory _bill = bills[_id];\n\n        // Fetch the payee\n        address payable _payee = _bill.payee;\n        \n        // Make sure the bill has a valid id -- to prevent scam\n        require(_bill.id > 0 && _bill.id <= numberOfTransactions);\n        // Require that there is enough Ether in the transaction\n        require(msg.value >= _bill.amount);\n        // Require that the bill has not been paid already\n        require(!_bill.alreadyPaid);\n\n        //Valid Payee is checked for in the front end\n        \n        // Mark as paid -- to prevent replay attack\n        _bill.alreadyPaid = true;\n\n        // Update the bill\n        bills[_id] = _bill;\n\n        // Pay the payee by sending them Ether\n        address(_payee).transfer(_bill.amount);\n\n        // Trigger an event that the Bill has been paid\n        emit BillPaid(numberOfTransactions, _bill.name, _bill.amount, _payee, msg.sender, true);\n        payer_who = msg.sender; \n\n    }\n\n    // ==================================================================================\n    //    Functions for activating and deactivating account and getting current\n    //    account status\n    // ==================================================================================\n\n    function activateAccount(address payable _addr) public {\n        if(!accountActive[_addr]) {\n            accountActive[_addr] = true;\n        }\n    }\n    \n    function deactivateAccount(address payable _addr) public {\n        if(accountActive[_addr]) {\n            accountActive[_addr] = false;\n        }\n    }\n    \n    function getAccountStatus(address payable _addr) public returns(bool) {\n        return accountActive[_addr];\n    }\n\n    // ==================================================================================\n    //    Functions for setting and getting upper limit of a given account\n    // ==================================================================================\n    \n    function setUpperLimit(uint _upperLimit, address payable payer) public {\n        upperLimit[payer] = _upperLimit;\n        emit UpperLimitModified(_upperLimit, msg.sender);\n    }\n    \n    function getUpperLimit() public returns(uint) {\n        uint upperLimitValue = upperLimit[payer];\n        return upperLimitValue;\n    }\n\n    // ==================================================================================\n    //    Function to add valid payees to a list and store it in the mapping\n    //    that is mapped to your account address and another to retrieve it\n    // ==================================================================================\n    \n    function addValidPayee(address payable _validPayee, address payable payer) public {\n        //  increment the number of valid payees for a given account\n         numberOfValidPayees[payer] += 1;\n         \n        //  add valid payee to a list and store it for a particular account address \n        validListOfPayees.push(ValidPayee(_validPayee));\n        validPayeesList[payer] = validListOfPayees;\n\n        //emit event that payee was authorised for a particular payer\n        emit ValidPayeeAdded(_validPayee, msg.sender);\n    }\n    \n    // OTHER CHECKS ARE VALIDATED IN THE FRONT END\n    \n}\n\n\n\n\n//=================================================================================================================================\n\n\n\n\n\n\n// pragma solidity ^0.5.0;\n\n// contract BillRentalPayment {\n//     string public name;\n    \n//     uint public numberOfTransactions = 0;\n//     // uint public numberOfValidPayees = 0;\n//     mapping(address => uint) public numberOfValidPayees;\n    \n//     address payable public payee_who;\n//     address payable public payer_who;\n//     address public payer;\n    \n//     mapping(uint => Bill) public bills; //need to have it private??\n    \n    \n//     bool public payerAccountActive = true; //CHANGE TO MAPPING\n    \n//     // uint public upperLimit = 50;\n//     mapping(address => uint) public upperLimit;\n    \n//     // ValidPayee[] public validListOfPayees;\n//     ValidPayee[] public validListOfPayees;\n//     mapping(address => ValidPayee[]) public validPayeesList;\n//     // -----------------------------------------\n//     //\n//     //    Sectional Dividers Like This\n//     //\n//     // -----------------------------------------\n    \n//     //[DONE]NEED TO HAVE ANOTHER BOOLEAN TO SEE IF THE PAYER IS STILL USING THIS SERVICE -- AND A FUNCTION WITH IF ELSE TO ABORT OR CONTINUE\n    \n//     //[DONE IN SOLIDITY, NOT FRONT END] CONSEQUENTLY NEED A FUNCTION CALLED DEACTIVATE ACCOUNT TO SET TO FALSE\n    \n//     //[REMOVED] NEED TO ALSO ADD ANOTHER PARAMETER SAY A PASSWORD SORT OF THING THAT ALL PAYEES SHOULD INCLUDE (DISTRIBUTED BY PAYER)\n//     //[REMOVED] WHICH THE PAYEE NEEDS TO SPECIFY EVERYTIME HE REQUESTS PAYMENT SO THAT IT CAN BE VERIFIED IF HES AUTHORISED ORRRR \n    \n//     //EACH PAYER WILL HAVE A LIST OF PAYEE ADDRESSES SO EVERYTIME A PAYMENT COMES THROUGH, IT WILL CHECK \n//     //IF THE PAYEE IS AUTHORISED\n    \n//     //[DONE]ADD A ADD VALID PAYEES SECTION IN THE WEBSITE \n//     //[DONE] RELEVANT SMART CONTRACT FUNCTION HERE\n    \n//     //[DONE]DISPLAY ONLY RELEVANT BILLS\n    \n//     //MODIFIER???????/\n\n//     struct Bill {\n//         uint id;\n//         string name;\n//         uint amount;\n//         address payable payee;\n//         address payable payer;\n//         bool alreadyPaid;\n//     }\n    \n//     struct ValidPayee {\n//         address payable payee;\n//         //bool alreadyRequestedOnceThisMonth\n//     }\n    \n//     event BillPaymentRequested(\n//         uint id,\n//         string name,\n//         uint amount,\n//         address payable payee,\n//         address payable payer,\n//         bool alreadyPaid\n//     );\n\n//     event BillPaid(\n//         uint id,\n//         string name,\n//         uint amount,\n//         address payable payee,\n//         address payable payer,\n//         bool alreadyPaid\n//     );\n    \n//     // modifier onlyPayer() {\n//     //     require(msg.sender == payer);  //need to add to constructor payer = msg.sender but that will mean that when payee calls \n//     //     _;                            // also it'll hold, so think about it\n//     // }\n\n//     constructor() public payable {\n//         name = \"Portobillo\";\n//         // payee = msg.sender;\n//     }\n    \n//     //NEED NONCE!!!\n\n//     function requestPayment(string memory _name, uint _amount, address payable _payer) public {\n//         // Require a valid name\n//         require(bytes(_name).length > 0);\n//         // Require a valid bill amount\n//         require(_amount > 0);\n        \n//         // Increment number of transactions so that the ID can be updated accordingly\n//         numberOfTransactions ++;\n        \n//         uint _id = numberOfTransactions;\n//         // Create the bill\n//         bills[_id] = Bill(_id, _name, _amount, msg.sender, _payer, false);\n        \n//         // Trigger an event that bill has been requested by the payee \n//         emit BillPaymentRequested(_id, _name, _amount, msg.sender, _payer, false);\n//         payee_who = msg.sender;\n//     }\n    \n//     //CAN HAVE A FUNCTION TO GET BILL DETAILS BY PASSING IN ARGUMENT ID!!!!\n\n//     function payBill(uint _id) public payable {\n//         // Fetch the bill\n//         Bill memory _bill = bills[_id];\n//         // Fetch the payee\n//         address payable _payee = _bill.payee;\n        \n//         // Make sure the bill has a valid id -- to prevent scam? \n//         require(_bill.id > 0 && _bill.id <= numberOfTransactions);\n//         // Require that there is enough Ether in the transaction\n//         require(msg.value >= _bill.amount);\n//         // Require that the bill has not been paid already\n//         require(!_bill.alreadyPaid);\n//         //Valid Payee is checked for in the front end\n        \n//         // Require that the buyer is not the seller -- REMOVE?\n//         // require(_payee != msg.sender);\n        \n//         // // Transfer ownership to the buyer\n//         // _bill.payee = msg.sender; -- ownership transfer DOESNT APPLY\n        \n//         // Mark as paid -- to prevent replay\n//         _bill.alreadyPaid = true;\n//         // Update the bill\n//         bills[_id] = _bill;\n//         // Pay the payee by sending them Ether\n//         address(_payee).transfer(_bill.amount);\n//         // Trigger an event\n//         emit BillPaid(numberOfTransactions, _bill.name, _bill.amount, _payee, msg.sender, true);\n//         payer_who = msg.sender; //REMOVE??\n//     }\n    \n//     function activateAccount() public {\n//         if(!payerAccountActive) {\n//             payerAccountActive = true;\n//         }\n//     }\n    \n//     function deactivateAccount() public {\n//         if(payerAccountActive) {\n//             payerAccountActive = false;\n//         }\n//     }\n    \n//     function getAccountStatus() public returns(bool) {\n//         return payerAccountActive;\n//     }\n    \n//     function setUpperLimit(uint _upperLimit, address payable payer) public {\n//         upperLimit[payer] = _upperLimit;\n//     }\n    \n//     function getUpperLimit() public returns(uint) {\n//         uint upperLimitValue = upperLimit[payer];\n//         return upperLimitValue;\n//         // return upperLimit;\n//     }\n    \n//     function addValidPayee(address payable _validPayee, address payable payer) public {\n//         //  numberOfValidPayees++;\n//          numberOfValidPayees[payer] += 1;\n         \n//          validListOfPayees.push(ValidPayee(_validPayee));\n//         // Add payee\n//         // validPayeesList[payer] = ValidPayee(_validPayee);\n//         validPayeesList[payer] = validListOfPayees;\n//         //validListOfPayees\n//     }\n    \n//     //CHANGE THE MAPPING FROM UINT TO ADDRESS SO THAT CAN REFER THE VALIDPAYEE FOR THE PAYER ADDRESS!!!!!!\n    \n//     // function getValidPayees() public returns(ValidPayee[] memory) {\n//     //     return validPayeesList;\n//     // }\n    \n//     //NEGATIVE AMOUNT REQUESTS ARE VALIDATED IN THE FRONT END\n    \n// }\n\n",
  "sourcePath": "/Users/sanjayshankar/Documents/GitHub/blockchain-final-project/src/contracts/BillRentalPayment.sol",
  "compiler": {
    "name": "solc",
    "version": "0.5.0+commit.1d4f565a.Emscripten.clang"
  },
  "schemaVersion": "3.0.2",
  "updatedAt": "2020-05-01T09:09:18.495Z",
  "devdoc": {
    "methods": {}
  },
  "userdoc": {
    "methods": {}
  }
}