{
  "contractName": "BillRentalPayment",
  "abi": [
    {
      "constant": true,
      "inputs": [],
      "name": "name",
      "outputs": [
        {
          "name": "",
          "type": "string"
        }
      ],
      "payable": false,
      "stateMutability": "view",
      "type": "function",
      "signature": "0x06fdde03"
    },
    {
      "constant": true,
      "inputs": [],
      "name": "payee_who",
      "outputs": [
        {
          "name": "",
          "type": "address"
        }
      ],
      "payable": false,
      "stateMutability": "view",
      "type": "function",
      "signature": "0x1d1cc760"
    },
    {
      "constant": true,
      "inputs": [
        {
          "name": "",
          "type": "uint256"
        }
      ],
      "name": "bills",
      "outputs": [
        {
          "name": "id",
          "type": "uint256"
        },
        {
          "name": "name",
          "type": "string"
        },
        {
          "name": "amount",
          "type": "uint256"
        },
        {
          "name": "payee",
          "type": "address"
        },
        {
          "name": "payer",
          "type": "address"
        },
        {
          "name": "alreadyPaid",
          "type": "bool"
        }
      ],
      "payable": false,
      "stateMutability": "view",
      "type": "function",
      "signature": "0x28bdcde8"
    },
    {
      "constant": true,
      "inputs": [],
      "name": "payer_who",
      "outputs": [
        {
          "name": "",
          "type": "address"
        }
      ],
      "payable": false,
      "stateMutability": "view",
      "type": "function",
      "signature": "0x8ae49608"
    },
    {
      "constant": true,
      "inputs": [],
      "name": "numberOfTransactions",
      "outputs": [
        {
          "name": "",
          "type": "uint256"
        }
      ],
      "payable": false,
      "stateMutability": "view",
      "type": "function",
      "signature": "0xf8d3afa4"
    },
    {
      "inputs": [],
      "payable": true,
      "stateMutability": "payable",
      "type": "constructor",
      "signature": "constructor"
    },
    {
      "anonymous": false,
      "inputs": [
        {
          "indexed": false,
          "name": "id",
          "type": "uint256"
        },
        {
          "indexed": false,
          "name": "name",
          "type": "string"
        },
        {
          "indexed": false,
          "name": "amount",
          "type": "uint256"
        },
        {
          "indexed": false,
          "name": "payee",
          "type": "address"
        },
        {
          "indexed": false,
          "name": "payer",
          "type": "address"
        },
        {
          "indexed": false,
          "name": "alreadyPaid",
          "type": "bool"
        }
      ],
      "name": "BillPaymentRequested",
      "type": "event",
      "signature": "0x694bf00112848e5e425efbfeca26dbe798788fac8c95f9a7f1b07e4ddd523811"
    },
    {
      "anonymous": false,
      "inputs": [
        {
          "indexed": false,
          "name": "id",
          "type": "uint256"
        },
        {
          "indexed": false,
          "name": "name",
          "type": "string"
        },
        {
          "indexed": false,
          "name": "amount",
          "type": "uint256"
        },
        {
          "indexed": false,
          "name": "payee",
          "type": "address"
        },
        {
          "indexed": false,
          "name": "payer",
          "type": "address"
        },
        {
          "indexed": false,
          "name": "alreadyPaid",
          "type": "bool"
        }
      ],
      "name": "BillPaid",
      "type": "event",
      "signature": "0x4ef5950e321d670c48a770ea38ea0f2ad7d2587599634f90a7da82f3361831ff"
    },
    {
      "constant": false,
      "inputs": [
        {
          "name": "_name",
          "type": "string"
        },
        {
          "name": "_amount",
          "type": "uint256"
        },
        {
          "name": "_payer",
          "type": "address"
        }
      ],
      "name": "requestPayment",
      "outputs": [],
      "payable": false,
      "stateMutability": "nonpayable",
      "type": "function",
      "signature": "0x392183aa"
    }
  ],
  "bytecode": "0x608060405260006001556040805190810160405280600a81526020017f506f72746f62696c6c6f000000000000000000000000000000000000000000008152506000908051906020019061005492919061005a565b506100ff565b828054600181600116156101000203166002900490600052602060002090601f016020900481019282601f1061009b57805160ff19168380011785556100c9565b828001600101855582156100c9579182015b828111156100c85782518255916020019190600101906100ad565b5b5090506100d691906100da565b5090565b6100fc91905b808211156100f85760008160009055506001016100e0565b5090565b90565b6109df8061010e6000396000f3fe608060405260043610610078576000357c0100000000000000000000000000000000000000000000000000000000900463ffffffff16806306fdde031461007d5780631d1cc7601461010d57806328bdcde814610164578063392183aa146102975780638ae4960814610389578063f8d3afa4146103e0575b600080fd5b34801561008957600080fd5b5061009261040b565b6040518080602001828103825283818151815260200191508051906020019080838360005b838110156100d25780820151818401526020810190506100b7565b50505050905090810190601f1680156100ff5780820380516001836020036101000a031916815260200191505b509250505060405180910390f35b34801561011957600080fd5b506101226104a9565b604051808273ffffffffffffffffffffffffffffffffffffffff1673ffffffffffffffffffffffffffffffffffffffff16815260200191505060405180910390f35b34801561017057600080fd5b5061019d6004803603602081101561018757600080fd5b81019080803590602001909291905050506104cf565b60405180878152602001806020018681526020018573ffffffffffffffffffffffffffffffffffffffff1673ffffffffffffffffffffffffffffffffffffffff1681526020018473ffffffffffffffffffffffffffffffffffffffff1673ffffffffffffffffffffffffffffffffffffffff16815260200183151515158152602001828103825287818151815260200191508051906020019080838360005b8381101561025757808201518184015260208101905061023c565b50505050905090810190601f1680156102845780820380516001836020036101000a031916815260200191505b5097505050505050505060405180910390f35b3480156102a357600080fd5b50610387600480360360608110156102ba57600080fd5b81019080803590602001906401000000008111156102d757600080fd5b8201836020820111156102e957600080fd5b8035906020019184600183028401116401000000008311171561030b57600080fd5b91908080601f016020809104026020016040519081016040528093929190818152602001838380828437600081840152601f19601f82011690508083019250505050505050919291929080359060200190929190803573ffffffffffffffffffffffffffffffffffffffff1690602001909291905050506105f0565b005b34801561039557600080fd5b5061039e6108e2565b604051808273ffffffffffffffffffffffffffffffffffffffff1673ffffffffffffffffffffffffffffffffffffffff16815260200191505060405180910390f35b3480156103ec57600080fd5b506103f5610908565b6040518082815260200191505060405180910390f35b60008054600181600116156101000203166002900480601f0160208091040260200160405190810160405280929190818152602001828054600181600116156101000203166002900480156104a15780601f10610476576101008083540402835291602001916104a1565b820191906000526020600020905b81548152906001019060200180831161048457829003601f168201915b505050505081565b600260009054906101000a900473ffffffffffffffffffffffffffffffffffffffff1681565b6004602052806000526040600020600091509050806000015490806001018054600181600116156101000203166002900480601f0160208091040260200160405190810160405280929190818152602001828054600181600116156101000203166002900480156105815780601f1061055657610100808354040283529160200191610581565b820191906000526020600020905b81548152906001019060200180831161056457829003601f168201915b5050505050908060020154908060030160009054906101000a900473ffffffffffffffffffffffffffffffffffffffff16908060040160009054906101000a900473ffffffffffffffffffffffffffffffffffffffff16908060040160149054906101000a900460ff16905086565b6000835111151561060057600080fd5b60008211151561060f57600080fd5b6001600081548092919060010191905055506000600154905060c0604051908101604052808281526020018581526020018481526020013373ffffffffffffffffffffffffffffffffffffffff1681526020018373ffffffffffffffffffffffffffffffffffffffff16815260200160001515815250600460008381526020019081526020016000206000820151816000015560208201518160010190805190602001906106be92919061090e565b506040820151816002015560608201518160030160006101000a81548173ffffffffffffffffffffffffffffffffffffffff021916908373ffffffffffffffffffffffffffffffffffffffff16021790555060808201518160040160006101000a81548173ffffffffffffffffffffffffffffffffffffffff021916908373ffffffffffffffffffffffffffffffffffffffff16021790555060a08201518160040160146101000a81548160ff0219169083151502179055509050507f694bf00112848e5e425efbfeca26dbe798788fac8c95f9a7f1b07e4ddd5238118185853386600060405180878152602001806020018681526020018573ffffffffffffffffffffffffffffffffffffffff1673ffffffffffffffffffffffffffffffffffffffff1681526020018473ffffffffffffffffffffffffffffffffffffffff1673ffffffffffffffffffffffffffffffffffffffff16815260200183151515158152602001828103825287818151815260200191508051906020019080838360005b8381101561085c578082015181840152602081019050610841565b50505050905090810190601f1680156108895780820380516001836020036101000a031916815260200191505b5097505050505050505060405180910390a133600260006101000a81548173ffffffffffffffffffffffffffffffffffffffff021916908373ffffffffffffffffffffffffffffffffffffffff16021790555050505050565b600360009054906101000a900473ffffffffffffffffffffffffffffffffffffffff1681565b60015481565b828054600181600116156101000203166002900490600052602060002090601f016020900481019282601f1061094f57805160ff191683800117855561097d565b8280016001018555821561097d579182015b8281111561097c578251825591602001919060010190610961565b5b50905061098a919061098e565b5090565b6109b091905b808211156109ac576000816000905550600101610994565b5090565b9056fea165627a7a72305820a705377bdf614656a9ed057614faf71d1e00808d4fa3497ee848ace1a76e9c640029",
  "source": "pragma solidity ^0.5.0;\n\ncontract BillRentalPayment {\n    string public name;\n    \n    uint public numberOfTransactions = 0;\n    \n    address payable public payee_who;\n    address payable public payer_who;\n    \n    mapping(uint => Bill) public bills; //need to have it private??\n    \n    //NEED TO HAVE ANOTHER BOOLEAN TO SEE IF THE PAYER IS STILL USING THIS SERVICE -- AND A FUNCTION WITH IF ELSE TO ABORT OR CONTINUE\n\n    struct Bill {\n        uint id;\n        string name;\n        uint amount;\n        address payable payee;\n        address payable payer;\n        bool alreadyPaid;\n    }\n    \n    event BillPaymentRequested(\n        uint id,\n        string name,\n        uint amount,\n        address payable payee,\n        address payable payer,\n        bool alreadyPaid\n    );\n\n    event BillPaid(\n        uint id,\n        string name,\n        uint amount,\n        address payable payee,\n        address payable payer,\n        bool alreadyPaid\n    );\n    \n    // modifier onlyPayer() {\n    //     require(msg.sender == payer);  //need to add to constructor payer = msg.sender but that will mean that when payee calls \n    //     _;                            // also it'll hold, so think about it\n    // }\n\n    constructor() public payable {\n        name = \"Portobillo\";\n        // payee = msg.sender;\n    }\n    \n    //NEED NONCE!!!\n\n    function requestPayment(string memory _name, uint _amount, address payable _payer) public {\n        // Require a valid name\n        require(bytes(_name).length > 0);\n        // Require a valid bill amount\n        require(_amount > 0);\n        \n        // Increment number of transactions so that the ID can be updated accordingly\n        numberOfTransactions ++;\n        \n        uint _id = numberOfTransactions;\n        // Create the bill\n        bills[_id] = Bill(_id, _name, _amount, msg.sender, _payer, false);\n        \n        // Trigger an event that bill has been requested by the payee \n        emit BillPaymentRequested(_id, _name, _amount, msg.sender, _payer, false);\n        payee_who = msg.sender;\n    }\n\n    // function payBill(uint _id) public payable {\n    //     // Fetch the bill\n    //     Bill memory _bill = bills[_id];\n    //     // Fetch the payee\n    //     address payable _payee = _bill.payee;\n        \n    //     // Make sure the bill has a valid id -- to prevent scam? \n    //     require(_bill.id > 0 && _bill.id <= numberOfTransactions);\n    //     // Require that there is enough Ether in the transaction\n    //     require(msg.value >= _bill.amount);\n    //     // Require that the bill has not been paid already\n    //     require(!_bill.alreadyPaid);\n        \n    //     // Require that the buyer is not the seller -- REMOVE?\n    //     // require(_payee != msg.sender);\n        \n    //     // // Transfer ownership to the buyer\n    //     // _bill.payee = msg.sender; -- ownership transfer DOESNT APPLY\n        \n    //     // Mark as paid -- to prevent replay\n    //     _bill.alreadyPaid = true;\n    //     // Update the bill\n    //     bills[_id] = _bill;\n    //     // Pay the payee by sending them Ether\n    //     address(_payee).transfer(_bill.amount);\n    //     // Trigger an event\n    //     emit BillPaid(numberOfTransactions, _bill.name, _bill.amount, _payee, msg.sender, true);\n    //     payer_who = msg.sender; //REMOVE??\n    // }\n}\n\n//\"testname1\", 2,\"0x7d3965E166D39DF0168C82B9A95ADeA1C6FAA8fD\" DONT FORGET TO CHANGE THE VALUE BEFORE CLICKING PAYBILL\n\n\n\n// pragma solidity ^0.5.0;\n\n// contract BillRentalPayment {\n//     string public name;\n\n//     constructor() public {\n//         name = \"Portobillo\";\n//     }\n// }",
  "sourcePath": "/Users/sanjayshankar/Documents/GitHub/blockchain-final-project/src/contracts/BillRentalPayment.sol",
  "compiler": {
    "name": "solc",
    "version": "0.5.0+commit.1d4f565a.Emscripten.clang"
  },
  "schemaVersion": "3.0.2",
  "updatedAt": "2020-04-18T16:27:19.482Z",
  "devdoc": {
    "methods": {}
  },
  "userdoc": {
    "methods": {}
  }
}